{
  "address": "0xC7E6Fe93029C3F55acE3866998941db824E8f71a",
  "abi": [
    {
      "anonymous": false,
      "inputs": [
        {
          "indexed": true,
          "internalType": "address",
          "name": "owner",
          "type": "address"
        },
        {
          "indexed": true,
          "internalType": "address",
          "name": "approved",
          "type": "address"
        },
        {
          "indexed": true,
          "internalType": "uint256",
          "name": "tokenId",
          "type": "uint256"
        }
      ],
      "name": "Approval",
      "type": "event"
    },
    {
      "anonymous": false,
      "inputs": [
        {
          "indexed": true,
          "internalType": "address",
          "name": "owner",
          "type": "address"
        },
        {
          "indexed": true,
          "internalType": "address",
          "name": "operator",
          "type": "address"
        },
        {
          "indexed": false,
          "internalType": "bool",
          "name": "approved",
          "type": "bool"
        }
      ],
      "name": "ApprovalForAll",
      "type": "event"
    },
    {
      "anonymous": false,
      "inputs": [
        {
          "indexed": true,
          "internalType": "address",
          "name": "previousOwner",
          "type": "address"
        },
        {
          "indexed": true,
          "internalType": "address",
          "name": "newOwner",
          "type": "address"
        }
      ],
      "name": "OwnershipTransferred",
      "type": "event"
    },
    {
      "anonymous": false,
      "inputs": [
        {
          "indexed": true,
          "internalType": "address",
          "name": "from",
          "type": "address"
        },
        {
          "indexed": true,
          "internalType": "address",
          "name": "to",
          "type": "address"
        },
        {
          "indexed": true,
          "internalType": "uint256",
          "name": "tokenId",
          "type": "uint256"
        }
      ],
      "name": "Transfer",
      "type": "event"
    },
    {
      "inputs": [
        {
          "internalType": "address",
          "name": "to",
          "type": "address"
        },
        {
          "internalType": "uint256",
          "name": "tokenId",
          "type": "uint256"
        }
      ],
      "name": "approve",
      "outputs": [],
      "stateMutability": "nonpayable",
      "type": "function"
    },
    {
      "inputs": [
        {
          "internalType": "address",
          "name": "owner",
          "type": "address"
        }
      ],
      "name": "balanceOf",
      "outputs": [
        {
          "internalType": "uint256",
          "name": "",
          "type": "uint256"
        }
      ],
      "stateMutability": "view",
      "type": "function"
    },
    {
      "inputs": [],
      "name": "baseTokenURI",
      "outputs": [
        {
          "internalType": "string",
          "name": "",
          "type": "string"
        }
      ],
      "stateMutability": "view",
      "type": "function"
    },
    {
      "inputs": [],
      "name": "baseURI",
      "outputs": [
        {
          "internalType": "string",
          "name": "",
          "type": "string"
        }
      ],
      "stateMutability": "view",
      "type": "function"
    },
    {
      "inputs": [],
      "name": "contractURI",
      "outputs": [
        {
          "internalType": "string",
          "name": "",
          "type": "string"
        }
      ],
      "stateMutability": "view",
      "type": "function"
    },
    {
      "inputs": [],
      "name": "exchangeAddress",
      "outputs": [
        {
          "internalType": "address",
          "name": "",
          "type": "address"
        }
      ],
      "stateMutability": "view",
      "type": "function"
    },
    {
      "inputs": [
        {
          "internalType": "uint256",
          "name": "tokenId",
          "type": "uint256"
        }
      ],
      "name": "getApproved",
      "outputs": [
        {
          "internalType": "address",
          "name": "",
          "type": "address"
        }
      ],
      "stateMutability": "view",
      "type": "function"
    },
    {
      "inputs": [
        {
          "internalType": "string",
          "name": "_name",
          "type": "string"
        },
        {
          "internalType": "string",
          "name": "_symbol",
          "type": "string"
        },
        {
          "internalType": "string",
          "name": "_tokenURI",
          "type": "string"
        },
        {
          "internalType": "string",
          "name": "_contractURI",
          "type": "string"
        },
        {
          "internalType": "address",
          "name": "_proxyRegistryAddress",
          "type": "address"
        },
        {
          "internalType": "address",
          "name": "_exchangeAddress",
          "type": "address"
        }
      ],
      "name": "initialize",
      "outputs": [],
      "stateMutability": "nonpayable",
      "type": "function"
    },
    {
      "inputs": [
        {
          "internalType": "address",
          "name": "owner",
          "type": "address"
        },
        {
          "internalType": "address",
          "name": "operator",
          "type": "address"
        }
      ],
      "name": "isApprovedForAll",
      "outputs": [
        {
          "internalType": "bool",
          "name": "",
          "type": "bool"
        }
      ],
      "stateMutability": "view",
      "type": "function"
    },
    {
      "inputs": [
        {
          "internalType": "address",
          "name": "_from",
          "type": "address"
        },
        {
          "internalType": "address",
          "name": "_to",
          "type": "address"
        },
        {
          "internalType": "uint256",
          "name": "_tokenId",
          "type": "uint256"
        },
        {
          "internalType": "string",
          "name": "_metadataURI",
          "type": "string"
        }
      ],
      "name": "mintAndTransfer",
      "outputs": [
        {
          "internalType": "uint256",
          "name": "",
          "type": "uint256"
        }
      ],
      "stateMutability": "nonpayable",
      "type": "function"
    },
    {
      "inputs": [
        {
          "internalType": "address",
          "name": "_to",
          "type": "address"
        },
        {
          "internalType": "uint256",
          "name": "_tokenId",
          "type": "uint256"
        },
        {
          "internalType": "string",
          "name": "_metadataURI",
          "type": "string"
        }
      ],
      "name": "mintTo",
      "outputs": [
        {
          "internalType": "uint256",
          "name": "",
          "type": "uint256"
        }
      ],
      "stateMutability": "nonpayable",
      "type": "function"
    },
    {
      "inputs": [
        {
          "internalType": "string",
          "name": "_contractURI",
          "type": "string"
        }
      ],
      "name": "modifyContractURI",
      "outputs": [],
      "stateMutability": "nonpayable",
      "type": "function"
    },
    {
      "inputs": [
        {
          "internalType": "string",
          "name": "extendedTokenURI_",
          "type": "string"
        }
      ],
      "name": "modifyExtendedURI",
      "outputs": [],
      "stateMutability": "nonpayable",
      "type": "function"
    },
    {
      "inputs": [],
      "name": "name",
      "outputs": [
        {
          "internalType": "string",
          "name": "",
          "type": "string"
        }
      ],
      "stateMutability": "view",
      "type": "function"
    },
    {
      "inputs": [],
      "name": "owner",
      "outputs": [
        {
          "internalType": "address",
          "name": "",
          "type": "address"
        }
      ],
      "stateMutability": "view",
      "type": "function"
    },
    {
      "inputs": [
        {
          "internalType": "uint256",
          "name": "tokenId",
          "type": "uint256"
        }
      ],
      "name": "ownerOf",
      "outputs": [
        {
          "internalType": "address",
          "name": "",
          "type": "address"
        }
      ],
      "stateMutability": "view",
      "type": "function"
    },
    {
      "inputs": [],
      "name": "proxyRegistryAddress",
      "outputs": [
        {
          "internalType": "address",
          "name": "",
          "type": "address"
        }
      ],
      "stateMutability": "view",
      "type": "function"
    },
    {
      "inputs": [],
      "name": "renounceOwnership",
      "outputs": [],
      "stateMutability": "nonpayable",
      "type": "function"
    },
    {
      "inputs": [
        {
          "internalType": "address",
          "name": "from",
          "type": "address"
        },
        {
          "internalType": "address",
          "name": "to",
          "type": "address"
        },
        {
          "internalType": "uint256",
          "name": "tokenId",
          "type": "uint256"
        }
      ],
      "name": "safeTransferFrom",
      "outputs": [],
      "stateMutability": "nonpayable",
      "type": "function"
    },
    {
      "inputs": [
        {
          "internalType": "address",
          "name": "from",
          "type": "address"
        },
        {
          "internalType": "address",
          "name": "to",
          "type": "address"
        },
        {
          "internalType": "uint256",
          "name": "tokenId",
          "type": "uint256"
        },
        {
          "internalType": "bytes",
          "name": "_data",
          "type": "bytes"
        }
      ],
      "name": "safeTransferFrom",
      "outputs": [],
      "stateMutability": "nonpayable",
      "type": "function"
    },
    {
      "inputs": [
        {
          "internalType": "address",
          "name": "operator",
          "type": "address"
        },
        {
          "internalType": "bool",
          "name": "approved",
          "type": "bool"
        }
      ],
      "name": "setApprovalForAll",
      "outputs": [],
      "stateMutability": "nonpayable",
      "type": "function"
    },
    {
      "inputs": [
        {
          "internalType": "address",
          "name": "_from",
          "type": "address"
        },
        {
          "internalType": "address",
          "name": "_to",
          "type": "address"
        },
        {
          "internalType": "uint256",
          "name": "_tokenId",
          "type": "uint256"
        }
      ],
      "name": "singleTransfer",
      "outputs": [
        {
          "internalType": "uint256",
          "name": "",
          "type": "uint256"
        }
      ],
      "stateMutability": "nonpayable",
      "type": "function"
    },
    {
      "inputs": [
        {
          "internalType": "bytes4",
          "name": "interfaceId",
          "type": "bytes4"
        }
      ],
      "name": "supportsInterface",
      "outputs": [
        {
          "internalType": "bool",
          "name": "",
          "type": "bool"
        }
      ],
      "stateMutability": "view",
      "type": "function"
    },
    {
      "inputs": [],
      "name": "symbol",
      "outputs": [
        {
          "internalType": "string",
          "name": "",
          "type": "string"
        }
      ],
      "stateMutability": "view",
      "type": "function"
    },
    {
      "inputs": [
        {
          "internalType": "uint256",
          "name": "index",
          "type": "uint256"
        }
      ],
      "name": "tokenByIndex",
      "outputs": [
        {
          "internalType": "uint256",
          "name": "",
          "type": "uint256"
        }
      ],
      "stateMutability": "view",
      "type": "function"
    },
    {
      "inputs": [
        {
          "internalType": "address",
          "name": "owner",
          "type": "address"
        },
        {
          "internalType": "uint256",
          "name": "index",
          "type": "uint256"
        }
      ],
      "name": "tokenOfOwnerByIndex",
      "outputs": [
        {
          "internalType": "uint256",
          "name": "",
          "type": "uint256"
        }
      ],
      "stateMutability": "view",
      "type": "function"
    },
    {
      "inputs": [
        {
          "internalType": "uint256",
          "name": "_tokenId",
          "type": "uint256"
        }
      ],
      "name": "tokenURI",
      "outputs": [
        {
          "internalType": "string",
          "name": "",
          "type": "string"
        }
      ],
      "stateMutability": "view",
      "type": "function"
    },
    {
      "inputs": [],
      "name": "totalSupply",
      "outputs": [
        {
          "internalType": "uint256",
          "name": "",
          "type": "uint256"
        }
      ],
      "stateMutability": "view",
      "type": "function"
    },
    {
      "inputs": [
        {
          "internalType": "address",
          "name": "from",
          "type": "address"
        },
        {
          "internalType": "address",
          "name": "to",
          "type": "address"
        },
        {
          "internalType": "uint256",
          "name": "tokenId",
          "type": "uint256"
        }
      ],
      "name": "transferFrom",
      "outputs": [],
      "stateMutability": "nonpayable",
      "type": "function"
    },
    {
      "inputs": [
        {
          "internalType": "address",
          "name": "newOwner",
          "type": "address"
        }
      ],
      "name": "transferOwnership",
      "outputs": [],
      "stateMutability": "nonpayable",
      "type": "function"
    }
  ],
  "transactionHash": "0x4e5c11c58fdacade75f191ff44e962661afc0df63a4e4914c3a5e128e66603f9",
  "args": [],
  "numDeployments": 1,
  "solcInputHash": "90ce8ac33db5a5561a6dddc82de03511",
  "bytecode": "0x608060405234801561001057600080fd5b50612c22806100206000396000f3fe608060405234801561001057600080fd5b50600436106101da5760003560e01c80638e1f83f811610104578063baea0063116100a2578063e8a3d48511610071578063e8a3d485146103a9578063e985e9c5146103b1578063ed629438146103c4578063f2fde38b146103d7576101da565b8063baea006314610373578063c87b56dd14610386578063cd7c032614610399578063d547cfb7146103a1576101da565b80639cd01605116100de5780639cd01605146103325780639f6ed25f1461033a578063a22cb4651461034d578063b88d4fde14610360576101da565b80638e1f83f81461030457806395d89b41146103175780639aac55c81461031f576101da565b80632f745c591161017c5780636c0360eb1161014b5780636c0360eb146102d957806370a08231146102e1578063715018a6146102f45780638da5cb5b146102fc576101da565b80632f745c591461028d57806342842e0e146102a05780634f6ccce7146102b35780636352211e146102c6576101da565b8063095ea7b3116101b8578063095ea7b31461023d57806318160ddd146102525780631c99c1501461026757806323b872dd1461027a576101da565b806301ffc9a7146101df57806306fdde0314610208578063081812fc1461021d575b600080fd5b6101f26101ed36600461269e565b6103ea565b6040516101ff9190612838565b60405180910390f35b61021061040d565b6040516101ff9190612843565b61023061022b3660046127dd565b6104a3565b6040516101ff9190612824565b61025061024b36600461261c565b610505565b005b61025a6105e0565b6040516101ff9190612930565b6102506102753660046126e2565b6105f1565b61025061028836600461252c565b61067c565b61025a61029b36600461261c565b6106d3565b6102506102ae36600461252c565b6106fe565b61025a6102c13660046127dd565b610719565b6102306102d43660046127dd565b61072f565b610210610757565b61025a6102ef3660046124d8565b6107b8565b610250610820565b6102306108de565b6102506103123660046126e2565b6108ed565b610210610974565b61025a61032d3660046125d6565b6109d5565b610230610a9b565b61025a610348366004612647565b610aaa565b61025061035b3660046125eb565b610ae1565b61025061036e36600461256c565b610be6565b610250610381366004612715565b610c44565b6102106103943660046127dd565b610d65565b610230610e87565b610210610e96565b610210610ef7565b6101f26103bf3660046124f4565b610f58565b61025a6103d236600461252c565b61101d565b6102506103e53660046124d8565b6110a7565b6001600160e01b0319811660009081526033602052604090205460ff165b919050565b606a8054604080516020601f60026000196101006001881615020190951694909404938401819004810282018101909252828152606093909290918301828280156104995780601f1061046e57610100808354040283529160200191610499565b820191906000526020600020905b81548152906001019060200180831161047c57829003601f168201915b5050505050905090565b60006104ae826111bc565b6104e95760405162461bcd60e51b815260040180806020018281038252602c815260200180612b46602c913960400191505060405180910390fd5b506000908152606860205260409020546001600160a01b031690565b60006105108261072f565b9050806001600160a01b0316836001600160a01b031614156105635760405162461bcd60e51b8152600401808060200182810382526021815260200180612b9b6021913960400191505060405180910390fd5b806001600160a01b03166105756111c9565b6001600160a01b031614806105965750610596816105916111c9565b6111cd565b6105d15760405162461bcd60e51b8152600401808060200182810382526038815260200180612a6b6038913960400191505060405180910390fd5b6105db83836111fb565b505050565b60006105ec6066611269565b905090565b6105f96111c9565b6001600160a01b031661060a6108de565b6001600160a01b031614610665576040805162461bcd60e51b815260206004820181905260248201527f4f776e61626c653a2063616c6c6572206973206e6f7420746865206f776e6572604482015290519081900360640190fd5b80516106789060cc9060208401906123b2565b5050565b61068d6106876111c9565b82611274565b6106c85760405162461bcd60e51b8152600401808060200182810382526031815260200180612bbc6031913960400191505060405180910390fd5b6105db838383611310565b6001600160a01b03821660009081526065602052604081206106f5908361145c565b90505b92915050565b6105db83838360405180602001604052806000815250610be6565b600080610727606684611468565b509392505050565b60006106f882604051806060016040528060298152602001612acd6029913960669190611484565b606d8054604080516020601f60026000196101006001881615020190951694909404938401819004810282018101909252828152606093909290918301828280156104995780601f1061046e57610100808354040283529160200191610499565b60006001600160a01b0382166107ff5760405162461bcd60e51b815260040180806020018281038252602a815260200180612aa3602a913960400191505060405180910390fd5b6001600160a01b03821660009081526065602052604090206106f890611269565b6108286111c9565b6001600160a01b03166108396108de565b6001600160a01b031614610894576040805162461bcd60e51b815260206004820181905260248201527f4f776e61626c653a2063616c6c6572206973206e6f7420746865206f776e6572604482015290519081900360640190fd5b6097546040516000916001600160a01b0316907f8be0079c531659141344cd1fd0a4f28419497f9722a3daafe3b4186f6b6457e0908390a3609780546001600160a01b0319169055565b6097546001600160a01b031690565b6108f56111c9565b6001600160a01b03166109066108de565b6001600160a01b031614610961576040805162461bcd60e51b815260206004820181905260248201527f4f776e61626c653a2063616c6c6572206973206e6f7420746865206f776e6572604482015290519081900360640190fd5b80516106789060cb9060208401906123b2565b606b8054604080516020601f60026000196101006001881615020190951694909404938401819004810282018101909252828152606093909290918301828280156104995780601f1061046e57610100808354040283529160200191610499565b60006109e0836111bc565b15610a655760006109f08461072f565b9050856001600160a01b0316816001600160a01b031614610a2c5760405162461bcd60e51b8152600401610a2390612876565b60405180910390fd5b610a38816103bf6111c9565b610a545760405162461bcd60e51b8152600401610a23906128d3565b610a5f868686611310565b50610a90565b610a6f8484611491565b600083815260cd602090815260409091208351610a8e928501906123b2565b505b50815b949350505050565b60c9546001600160a01b031681565b6000610ab68484611491565b600083815260cd602090815260409091208351610ad5928501906123b2565b508290505b9392505050565b610ae96111c9565b6001600160a01b0316826001600160a01b03161415610b4f576040805162461bcd60e51b815260206004820152601960248201527f4552433732313a20617070726f766520746f2063616c6c657200000000000000604482015290519081900360640190fd5b8060696000610b5c6111c9565b6001600160a01b03908116825260208083019390935260409182016000908120918716808252919093529120805460ff191692151592909217909155610ba06111c9565b6001600160a01b03167f17307eab39ab6107e8899845ad3d59bd9653f200f220920489ca2b5937696c318360405180821515815260200191505060405180910390a35050565b610bf7610bf16111c9565b83611274565b610c325760405162461bcd60e51b8152600401808060200182810382526031815260200180612bbc6031913960400191505060405180910390fd5b610c3e848484846115bf565b50505050565b600054610100900460ff1680610c5d5750610c5d611611565b80610c6b575060005460ff16155b610ca65760405162461bcd60e51b815260040180806020018281038252602e815260200180612af6602e913960400191505060405180910390fd5b600054610100900460ff16158015610cd1576000805460ff1961ff0019909116610100171660011790555b610cd9611622565b610ce387876116d4565b60ca80546001600160a01b0319166001600160a01b0385161790558451610d119060cc9060208801906123b2565b5060c980546001600160a01b0319166001600160a01b0384161790558351610d409060cb9060208701906123b2565b50610d4a326110a7565b8015610d5c576000805461ff00191690555b50505050505050565b600081815260cd60209081526040918290208054835160026001831615610100026000190190921691909104601f81018490048402820184019094528381526060938493919291830182828015610dfd5780601f10610dd257610100808354040283529160200191610dfd565b820191906000526020600020905b815481529060010190602001808311610de057829003601f168201915b505050505090506060610e0e610e96565b9050805160001415610e2257509050610408565b815115610e54578082604051602001610e3c9291906127f5565b60405160208183030381529060405292505050610408565b80610e5e85611791565b604051602001610e6f9291906127f5565b60405160208183030381529060405292505050919050565b60ca546001600160a01b031681565b60cc8054604080516020601f60026000196101006001881615020190951694909404938401819004810282018101909252828152606093909290918301828280156104995780601f1061046e57610100808354040283529160200191610499565b60cb8054604080516020601f60026000196101006001881615020190951694909404938401819004810282018101909252828152606093909290918301828280156104995780601f1061046e57610100808354040283529160200191610499565b60ca546040517fc45527910000000000000000000000000000000000000000000000000000000081526000916001600160a01b039081169190841690829063c455279190610faa908890600401612824565b60206040518083038186803b158015610fc257600080fd5b505afa158015610fd6573d6000803e3d6000fd5b505050506040513d601f19601f82011682018060405250810190610ffa91906126c6565b6001600160a01b031614156110135760019150506106f8565b610a9384846111cd565b6000611028826111bc565b156110a05760006110388361072f565b9050846001600160a01b0316816001600160a01b03161461106b5760405162461bcd60e51b8152600401610a2390612876565b611077816103bf6111c9565b6110935760405162461bcd60e51b8152600401610a23906128d3565b61109e858585611310565b505b5092915050565b6110af6111c9565b6001600160a01b03166110c06108de565b6001600160a01b03161461111b576040805162461bcd60e51b815260206004820181905260248201527f4f776e61626c653a2063616c6c6572206973206e6f7420746865206f776e6572604482015290519081900360640190fd5b6001600160a01b0381166111605760405162461bcd60e51b81526004018080602001828103825260268152602001806129cf6026913960400191505060405180910390fd5b6097546040516001600160a01b038084169216907f8be0079c531659141344cd1fd0a4f28419497f9722a3daafe3b4186f6b6457e090600090a3609780546001600160a01b0319166001600160a01b0392909216919091179055565b60006106f86066836118a0565b3390565b6001600160a01b03918216600090815260696020908152604080832093909416825291909152205460ff1690565b600081815260686020526040902080546001600160a01b0319166001600160a01b03841690811790915581906112308261072f565b6001600160a01b03167f8c5be1e5ebec7d5bd14f71427d1e84f3dd0314c0f7b2291e5b200ac8c7c3b92560405160405180910390a45050565b60006106f8826118ac565b600061127f826111bc565b6112ba5760405162461bcd60e51b815260040180806020018281038252602c815260200180612a3f602c913960400191505060405180910390fd5b60006112c58361072f565b9050806001600160a01b0316846001600160a01b031614806113005750836001600160a01b03166112f5846104a3565b6001600160a01b0316145b80610a935750610a9381856111cd565b826001600160a01b03166113238261072f565b6001600160a01b0316146113685760405162461bcd60e51b8152600401808060200182810382526029815260200180612b726029913960400191505060405180910390fd5b6001600160a01b0382166113ad5760405162461bcd60e51b81526004018080602001828103825260248152602001806129f56024913960400191505060405180910390fd5b6113b88383836105db565b6113c36000826111fb565b6001600160a01b03831660009081526065602052604090206113e590826118b0565b506001600160a01b038216600090815260656020526040902061140890826118bc565b50611415606682846118c8565b5080826001600160a01b0316846001600160a01b03167fddf252ad1be2c89b69c2b068fc378daa952ba7f163c4a11628f55a4df523b3ef60405160405180910390a4505050565b60006106f583836118de565b60008080806114778686611942565b9097909650945050505050565b6000610a938484846119bd565b6001600160a01b0382166114ec576040805162461bcd60e51b815260206004820181905260248201527f4552433732313a206d696e7420746f20746865207a65726f2061646472657373604482015290519081900360640190fd5b6114f5816111bc565b15611547576040805162461bcd60e51b815260206004820152601c60248201527f4552433732313a20746f6b656e20616c7265616479206d696e74656400000000604482015290519081900360640190fd5b611553600083836105db565b6001600160a01b038216600090815260656020526040902061157590826118bc565b50611582606682846118c8565b5060405181906001600160a01b038416906000907fddf252ad1be2c89b69c2b068fc378daa952ba7f163c4a11628f55a4df523b3ef908290a45050565b6115ca848484611310565b6115d684848484611a87565b610c3e5760405162461bcd60e51b815260040180806020018281038252603281526020018061299d6032913960400191505060405180910390fd5b600061161c30611c19565b15905090565b600054610100900460ff168061163b575061163b611611565b80611649575060005460ff16155b6116845760405162461bcd60e51b815260040180806020018281038252602e815260200180612af6602e913960400191505060405180910390fd5b600054610100900460ff161580156116af576000805460ff1961ff0019909116610100171660011790555b6116b7611c1f565b6116bf611cbf565b80156116d1576000805461ff00191690555b50565b600054610100900460ff16806116ed57506116ed611611565b806116fb575060005460ff16155b6117365760405162461bcd60e51b815260040180806020018281038252602e815260200180612af6602e913960400191505060405180910390fd5b600054610100900460ff16158015611761576000805460ff1961ff0019909116610100171660011790555b611769611c1f565b611771611db8565b61177b8383611e6e565b80156105db576000805461ff0019169055505050565b6060816117d2575060408051808201909152600181527f30000000000000000000000000000000000000000000000000000000000000006020820152610408565b8160005b81156117ea57600101600a820491506117d6565b60608167ffffffffffffffff8111801561180357600080fd5b506040519080825280601f01601f19166020018201604052801561182e576020820181803683370190505b50859350905060001982015b831561189757600a840660300160f81b8282806001900393508151811061185d57fe5b60200101907effffffffffffffffffffffffffffffffffffffffffffffffffffffffffffff1916908160001a905350600a8404935061183a565b50949350505050565b60006106f58383611f9e565b5490565b60006106f58383611fb6565b60006106f5838361207c565b6000610a9384846001600160a01b0385166120c6565b815460009082106119205760405162461bcd60e51b815260040180806020018281038252602281526020018061297b6022913960400191505060405180910390fd5b82600001828154811061192f57fe5b9060005260206000200154905092915050565b8154600090819083106119865760405162461bcd60e51b8152600401808060200182810382526022815260200180612b246022913960400191505060405180910390fd5b600084600001848154811061199757fe5b906000526020600020906002020190508060000154816001015492509250509250929050565b60008281526001840160205260408120548281611a585760405162461bcd60e51b81526004018080602001828103825283818151815260200191508051906020019080838360005b83811015611a1d578181015183820152602001611a05565b50505050905090810190601f168015611a4a5780820380516001836020036101000a031916815260200191505b509250505060405180910390fd5b50846000016001820381548110611a6b57fe5b9060005260206000209060020201600101549150509392505050565b6000611a9b846001600160a01b0316611c19565b611aa757506001610a93565b6060611bdf630a85bd0160e11b611abc6111c9565b88878760405160240180856001600160a01b03168152602001846001600160a01b0316815260200183815260200180602001828103825283818151815260200191508051906020019080838360005b83811015611b23578181015183820152602001611b0b565b50505050905090810190601f168015611b505780820380516001836020036101000a031916815260200191505b5095505050505050604051602081830303815290604052907bffffffffffffffffffffffffffffffffffffffffffffffffffffffff19166020820180517bffffffffffffffffffffffffffffffffffffffffffffffffffffffff838183161783525050505060405180606001604052806032815260200161299d603291396001600160a01b038816919061215d565b90506000818060200190516020811015611bf857600080fd5b50516001600160e01b031916630a85bd0160e11b1492505050949350505050565b3b151590565b600054610100900460ff1680611c385750611c38611611565b80611c46575060005460ff16155b611c815760405162461bcd60e51b815260040180806020018281038252602e815260200180612af6602e913960400191505060405180910390fd5b600054610100900460ff161580156116bf576000805460ff1961ff00199091166101001716600117905580156116d1576000805461ff001916905550565b600054610100900460ff1680611cd85750611cd8611611565b80611ce6575060005460ff16155b611d215760405162461bcd60e51b815260040180806020018281038252602e815260200180612af6602e913960400191505060405180910390fd5b600054610100900460ff16158015611d4c576000805460ff1961ff0019909116610100171660011790555b6000611d566111c9565b609780546001600160a01b0319166001600160a01b038316908117909155604051919250906000907f8be0079c531659141344cd1fd0a4f28419497f9722a3daafe3b4186f6b6457e0908290a35080156116d1576000805461ff001916905550565b600054610100900460ff1680611dd15750611dd1611611565b80611ddf575060005460ff16155b611e1a5760405162461bcd60e51b815260040180806020018281038252602e815260200180612af6602e913960400191505060405180910390fd5b600054610100900460ff16158015611e45576000805460ff1961ff0019909116610100171660011790555b6116bf7f01ffc9a70000000000000000000000000000000000000000000000000000000061216c565b600054610100900460ff1680611e875750611e87611611565b80611e95575060005460ff16155b611ed05760405162461bcd60e51b815260040180806020018281038252602e815260200180612af6602e913960400191505060405180910390fd5b600054610100900460ff16158015611efb576000805460ff1961ff0019909116610100171660011790555b8251611f0e90606a9060208601906123b2565b508151611f2290606b9060208501906123b2565b50611f4c7f80ac58cd0000000000000000000000000000000000000000000000000000000061216c565b611f757f5b5e139f0000000000000000000000000000000000000000000000000000000061216c565b61177b7f780e9d630000000000000000000000000000000000000000000000000000000061216c565b60009081526001919091016020526040902054151590565b600081815260018301602052604081205480156120725783546000198083019190810190600090879083908110611fe957fe5b906000526020600020015490508087600001848154811061200657fe5b60009182526020808320909101929092558281526001898101909252604090209084019055865487908061203657fe5b600190038181906000526020600020016000905590558660010160008781526020019081526020016000206000905560019450505050506106f8565b60009150506106f8565b60006120888383611f9e565b6120be575081546001818101845560008481526020808220909301849055845484825282860190935260409020919091556106f8565b5060006106f8565b60008281526001840160205260408120548061212b575050604080518082018252838152602080820184815286546001818101895560008981528481209551600290930290950191825591519082015586548684528188019092529290912055610ada565b8285600001600183038154811061213e57fe5b9060005260206000209060020201600101819055506000915050610ada565b6060610a9384846000856121f0565b6001600160e01b031980821614156121cb576040805162461bcd60e51b815260206004820152601c60248201527f4552433136353a20696e76616c696420696e7465726661636520696400000000604482015290519081900360640190fd5b6001600160e01b0319166000908152603360205260409020805460ff19166001179055565b6060824710156122315760405162461bcd60e51b8152600401808060200182810382526026815260200180612a196026913960400191505060405180910390fd5b61223a85611c19565b61228b576040805162461bcd60e51b815260206004820152601d60248201527f416464726573733a2063616c6c20746f206e6f6e2d636f6e7472616374000000604482015290519081900360640190fd5b60006060866001600160a01b031685876040518082805190602001908083835b602083106122ca5780518252601f1990920191602091820191016122ab565b6001836020036101000a03801982511681845116808217855250505050505090500191505060006040518083038185875af1925050503d806000811461232c576040519150601f19603f3d011682016040523d82523d6000602084013e612331565b606091505b509150915061234182828661234c565b979650505050505050565b6060831561235b575081610ada565b82511561236b5782518084602001fd5b60405162461bcd60e51b8152602060048201818152845160248401528451859391928392604401919085019080838360008315611a1d578181015183820152602001611a05565b828054600181600116156101000203166002900490600052602060002090601f0160209004810192826123e8576000855561242e565b82601f1061240157805160ff191683800117855561242e565b8280016001018555821561242e579182015b8281111561242e578251825591602001919060010190612413565b5061243a92915061243e565b5090565b5b8082111561243a576000815560010161243f565b803561040881612965565b600082601f83011261246e578081fd5b813567ffffffffffffffff8082111561248357fe5b604051601f8301601f1916810160200182811182821017156124a157fe5b6040528281529250828483016020018610156124bc57600080fd5b8260208601602083013760006020848301015250505092915050565b6000602082840312156124e9578081fd5b8135610ada81612965565b60008060408385031215612506578081fd5b823561251181612965565b9150602083013561252181612965565b809150509250929050565b600080600060608486031215612540578081fd5b833561254b81612965565b9250602084013561255b81612965565b929592945050506040919091013590565b60008060008060808587031215612581578081fd5b843561258c81612965565b9350602085013561259c81612965565b925060408501359150606085013567ffffffffffffffff8111156125be578182fd5b6125ca8782880161245e565b91505092959194509250565b60008060008060808587031215612581578384fd5b600080604083850312156125fd578182fd5b823561260881612965565b915060208301358015158114612521578182fd5b6000806040838503121561262e578182fd5b823561263981612965565b946020939093013593505050565b60008060006060848603121561265b578283fd5b833561266681612965565b925060208401359150604084013567ffffffffffffffff811115612688578182fd5b6126948682870161245e565b9150509250925092565b6000602082840312156126af578081fd5b81356001600160e01b031981168114610ada578182fd5b6000602082840312156126d7578081fd5b8151610ada81612965565b6000602082840312156126f3578081fd5b813567ffffffffffffffff811115612709578182fd5b610a938482850161245e565b60008060008060008060c0878903121561272d578182fd5b863567ffffffffffffffff80821115612744578384fd5b6127508a838b0161245e565b97506020890135915080821115612765578384fd5b6127718a838b0161245e565b96506040890135915080821115612786578384fd5b6127928a838b0161245e565b955060608901359150808211156127a7578384fd5b506127b489828a0161245e565b9350506127c360808801612453565b91506127d160a08801612453565b90509295509295509295565b6000602082840312156127ee578081fd5b5035919050565b60008351612807818460208801612939565b83519083019061281b818360208801612939565b01949350505050565b6001600160a01b0391909116815260200190565b901515815260200190565b6000602082528251806020840152612862816040850160208701612939565b601f01601f19169190910160400192915050565b6020808252602c908201527f4552433732315472616461626c653a3a546f6b656e204944206e6f742062656c60408201527f6f6e6720746f2075736572210000000000000000000000000000000000000000606082015260800190565b60208082526027908201527f4552433732315472616461626c653a3a73656e646572206973206e6f7420617060408201527f70726f7665642100000000000000000000000000000000000000000000000000606082015260800190565b90815260200190565b60005b8381101561295457818101518382015260200161293c565b83811115610c3e5750506000910152565b6001600160a01b03811681146116d157600080fdfe456e756d657261626c655365743a20696e646578206f7574206f6620626f756e64734552433732313a207472616e7366657220746f206e6f6e20455243373231526563656976657220696d706c656d656e7465724f776e61626c653a206e6577206f776e657220697320746865207a65726f20616464726573734552433732313a207472616e7366657220746f20746865207a65726f2061646472657373416464726573733a20696e73756666696369656e742062616c616e636520666f722063616c6c4552433732313a206f70657261746f7220717565727920666f72206e6f6e6578697374656e7420746f6b656e4552433732313a20617070726f76652063616c6c6572206973206e6f74206f776e6572206e6f7220617070726f76656420666f7220616c6c4552433732313a2062616c616e636520717565727920666f7220746865207a65726f20616464726573734552433732313a206f776e657220717565727920666f72206e6f6e6578697374656e7420746f6b656e496e697469616c697a61626c653a20636f6e747261637420697320616c726561647920696e697469616c697a6564456e756d657261626c654d61703a20696e646578206f7574206f6620626f756e64734552433732313a20617070726f76656420717565727920666f72206e6f6e6578697374656e7420746f6b656e4552433732313a207472616e73666572206f6620746f6b656e2074686174206973206e6f74206f776e4552433732313a20617070726f76616c20746f2063757272656e74206f776e65724552433732313a207472616e736665722063616c6c6572206973206e6f74206f776e6572206e6f7220617070726f766564a2646970667358221220a391c648036ba0189ee0c252e4d20f0cab945c536dcc6214cc68985330bddcdb64736f6c63430007050033",
  "devdoc": {
    "kind": "dev",
    "methods": {
      "approve(address,uint256)": {
        "details": "See {IERC721-approve}."
      },
      "balanceOf(address)": {
        "details": "See {IERC721-balanceOf}."
      },
      "baseURI()": {
        "details": "Returns the base URI set via {_setBaseURI}. This will be automatically added as a prefix in {tokenURI} to each token's URI, or to the token ID if no specific URI is set for that token ID."
      },
      "getApproved(uint256)": {
        "details": "See {IERC721-getApproved}."
      },
      "name()": {
        "details": "See {IERC721Metadata-name}."
      },
      "owner()": {
        "details": "Returns the address of the current owner."
      },
      "ownerOf(uint256)": {
        "details": "See {IERC721-ownerOf}."
      },
      "renounceOwnership()": {
        "details": "Leaves the contract without owner. It will not be possible to call `onlyOwner` functions anymore. Can only be called by the current owner. NOTE: Renouncing ownership will leave the contract without an owner, thereby removing any functionality that is only available to the owner."
      },
      "safeTransferFrom(address,address,uint256)": {
        "details": "See {IERC721-safeTransferFrom}."
      },
      "safeTransferFrom(address,address,uint256,bytes)": {
        "details": "See {IERC721-safeTransferFrom}."
      },
      "setApprovalForAll(address,bool)": {
        "details": "See {IERC721-setApprovalForAll}."
      },
      "supportsInterface(bytes4)": {
        "details": "See {IERC165-supportsInterface}. Time complexity O(1), guaranteed to always use less than 30 000 gas."
      },
      "symbol()": {
        "details": "See {IERC721Metadata-symbol}."
      },
      "tokenByIndex(uint256)": {
        "details": "See {IERC721Enumerable-tokenByIndex}."
      },
      "tokenOfOwnerByIndex(address,uint256)": {
        "details": "See {IERC721Enumerable-tokenOfOwnerByIndex}."
      },
      "totalSupply()": {
        "details": "See {IERC721Enumerable-totalSupply}."
      },
      "transferFrom(address,address,uint256)": {
        "details": "See {IERC721-transferFrom}."
      },
      "transferOwnership(address)": {
        "details": "Transfers ownership of the contract to a new account (`newOwner`). Can only be called by the current owner."
      }
    },
    "title": "ERC721Tradable ERC721Tradable - ERC721 contract that whitelists a trading address, and has minting functionality.",
    "version": 1
  },
  "userdoc": {
    "kind": "user",
    "methods": {
      "isApprovedForAll(address,address)": {
        "notice": "Override isApprovedForAll to whitelist user's OpenSea proxy accounts to enable gas-less listings."
      }
    },
    "version": 1
  },
  "storageLayout": {
    "storage": [
      {
        "astId": 579,
        "contract": "contracts/DefaultIzanaNFT721.sol:DefaultIzanaNFT721",
        "label": "_initialized",
        "offset": 0,
        "slot": "0",
        "type": "t_bool"
      },
      {
        "astId": 582,
        "contract": "contracts/DefaultIzanaNFT721.sol:DefaultIzanaNFT721",
        "label": "_initializing",
        "offset": 1,
        "slot": "0",
        "type": "t_bool"
      },
      {
        "astId": 3305,
        "contract": "contracts/DefaultIzanaNFT721.sol:DefaultIzanaNFT721",
        "label": "__gap",
        "offset": 0,
        "slot": "1",
        "type": "t_array(t_uint256)50_storage"
      },
      {
        "astId": 147,
        "contract": "contracts/DefaultIzanaNFT721.sol:DefaultIzanaNFT721",
        "label": "_supportedInterfaces",
        "offset": 0,
        "slot": "51",
        "type": "t_mapping(t_bytes4,t_bool)"
      },
      {
        "astId": 204,
        "contract": "contracts/DefaultIzanaNFT721.sol:DefaultIzanaNFT721",
        "label": "__gap",
        "offset": 0,
        "slot": "52",
        "type": "t_array(t_uint256)49_storage"
      },
      {
        "astId": 1900,
        "contract": "contracts/DefaultIzanaNFT721.sol:DefaultIzanaNFT721",
        "label": "_holderTokens",
        "offset": 0,
        "slot": "101",
        "type": "t_mapping(t_address,t_struct(UintSet)4263_storage)"
      },
      {
        "astId": 1902,
        "contract": "contracts/DefaultIzanaNFT721.sol:DefaultIzanaNFT721",
        "label": "_tokenOwners",
        "offset": 0,
        "slot": "102",
        "type": "t_struct(UintToAddressMap)3640_storage"
      },
      {
        "astId": 1906,
        "contract": "contracts/DefaultIzanaNFT721.sol:DefaultIzanaNFT721",
        "label": "_tokenApprovals",
        "offset": 0,
        "slot": "104",
        "type": "t_mapping(t_uint256,t_address)"
      },
      {
        "astId": 1912,
        "contract": "contracts/DefaultIzanaNFT721.sol:DefaultIzanaNFT721",
        "label": "_operatorApprovals",
        "offset": 0,
        "slot": "105",
        "type": "t_mapping(t_address,t_mapping(t_address,t_bool))"
      },
      {
        "astId": 1914,
        "contract": "contracts/DefaultIzanaNFT721.sol:DefaultIzanaNFT721",
        "label": "_name",
        "offset": 0,
        "slot": "106",
        "type": "t_string_storage"
      },
      {
        "astId": 1916,
        "contract": "contracts/DefaultIzanaNFT721.sol:DefaultIzanaNFT721",
        "label": "_symbol",
        "offset": 0,
        "slot": "107",
        "type": "t_string_storage"
      },
      {
        "astId": 1920,
        "contract": "contracts/DefaultIzanaNFT721.sol:DefaultIzanaNFT721",
        "label": "_tokenURIs",
        "offset": 0,
        "slot": "108",
        "type": "t_mapping(t_uint256,t_string_storage)"
      },
      {
        "astId": 1922,
        "contract": "contracts/DefaultIzanaNFT721.sol:DefaultIzanaNFT721",
        "label": "_baseURI",
        "offset": 0,
        "slot": "109",
        "type": "t_string_storage"
      },
      {
        "astId": 2824,
        "contract": "contracts/DefaultIzanaNFT721.sol:DefaultIzanaNFT721",
        "label": "__gap",
        "offset": 0,
        "slot": "110",
        "type": "t_array(t_uint256)41_storage"
      },
      {
        "astId": 10,
        "contract": "contracts/DefaultIzanaNFT721.sol:DefaultIzanaNFT721",
        "label": "_owner",
        "offset": 0,
        "slot": "151",
        "type": "t_address"
      },
      {
        "astId": 129,
        "contract": "contracts/DefaultIzanaNFT721.sol:DefaultIzanaNFT721",
        "label": "__gap",
        "offset": 0,
        "slot": "152",
        "type": "t_array(t_uint256)49_storage"
      },
      {
        "astId": 9200,
        "contract": "contracts/DefaultIzanaNFT721.sol:DefaultIzanaNFT721",
        "label": "exchangeAddress",
        "offset": 0,
        "slot": "201",
        "type": "t_address"
      },
      {
        "astId": 9202,
        "contract": "contracts/DefaultIzanaNFT721.sol:DefaultIzanaNFT721",
        "label": "proxyRegistryAddress",
        "offset": 0,
        "slot": "202",
        "type": "t_address"
      },
      {
        "astId": 9204,
        "contract": "contracts/DefaultIzanaNFT721.sol:DefaultIzanaNFT721",
        "label": "contractURI_",
        "offset": 0,
        "slot": "203",
        "type": "t_string_storage"
      },
      {
        "astId": 9206,
        "contract": "contracts/DefaultIzanaNFT721.sol:DefaultIzanaNFT721",
        "label": "_extendedTokenURI",
        "offset": 0,
        "slot": "204",
        "type": "t_string_storage"
      },
      {
        "astId": 9210,
        "contract": "contracts/DefaultIzanaNFT721.sol:DefaultIzanaNFT721",
        "label": "_eTokenURIs",
        "offset": 0,
        "slot": "205",
        "type": "t_mapping(t_uint256,t_string_storage)"
      }
    ],
    "types": {
      "t_address": {
        "encoding": "inplace",
        "label": "address",
        "numberOfBytes": "20"
      },
      "t_array(t_bytes32)dyn_storage": {
        "base": "t_bytes32",
        "encoding": "dynamic_array",
        "label": "bytes32[]",
        "numberOfBytes": "32"
      },
      "t_array(t_struct(MapEntry)3314_storage)dyn_storage": {
        "base": "t_struct(MapEntry)3314_storage",
        "encoding": "dynamic_array",
        "label": "struct EnumerableMapUpgradeable.MapEntry[]",
        "numberOfBytes": "32"
      },
      "t_array(t_uint256)41_storage": {
        "base": "t_uint256",
        "encoding": "inplace",
        "label": "uint256[41]",
        "numberOfBytes": "1312"
      },
      "t_array(t_uint256)49_storage": {
        "base": "t_uint256",
        "encoding": "inplace",
        "label": "uint256[49]",
        "numberOfBytes": "1568"
      },
      "t_array(t_uint256)50_storage": {
        "base": "t_uint256",
        "encoding": "inplace",
        "label": "uint256[50]",
        "numberOfBytes": "1600"
      },
      "t_bool": {
        "encoding": "inplace",
        "label": "bool",
        "numberOfBytes": "1"
      },
      "t_bytes32": {
        "encoding": "inplace",
        "label": "bytes32",
        "numberOfBytes": "32"
      },
      "t_bytes4": {
        "encoding": "inplace",
        "label": "bytes4",
        "numberOfBytes": "4"
      },
      "t_mapping(t_address,t_bool)": {
        "encoding": "mapping",
        "key": "t_address",
        "label": "mapping(address => bool)",
        "numberOfBytes": "32",
        "value": "t_bool"
      },
      "t_mapping(t_address,t_mapping(t_address,t_bool))": {
        "encoding": "mapping",
        "key": "t_address",
        "label": "mapping(address => mapping(address => bool))",
        "numberOfBytes": "32",
        "value": "t_mapping(t_address,t_bool)"
      },
      "t_mapping(t_address,t_struct(UintSet)4263_storage)": {
        "encoding": "mapping",
        "key": "t_address",
        "label": "mapping(address => struct EnumerableSetUpgradeable.UintSet)",
        "numberOfBytes": "32",
        "value": "t_struct(UintSet)4263_storage"
      },
      "t_mapping(t_bytes32,t_uint256)": {
        "encoding": "mapping",
        "key": "t_bytes32",
        "label": "mapping(bytes32 => uint256)",
        "numberOfBytes": "32",
        "value": "t_uint256"
      },
      "t_mapping(t_bytes4,t_bool)": {
        "encoding": "mapping",
        "key": "t_bytes4",
        "label": "mapping(bytes4 => bool)",
        "numberOfBytes": "32",
        "value": "t_bool"
      },
      "t_mapping(t_uint256,t_address)": {
        "encoding": "mapping",
        "key": "t_uint256",
        "label": "mapping(uint256 => address)",
        "numberOfBytes": "32",
        "value": "t_address"
      },
      "t_mapping(t_uint256,t_string_storage)": {
        "encoding": "mapping",
        "key": "t_uint256",
        "label": "mapping(uint256 => string)",
        "numberOfBytes": "32",
        "value": "t_string_storage"
      },
      "t_string_storage": {
        "encoding": "bytes",
        "label": "string",
        "numberOfBytes": "32"
      },
      "t_struct(Map)3322_storage": {
        "encoding": "inplace",
        "label": "struct EnumerableMapUpgradeable.Map",
        "members": [
          {
            "astId": 3317,
            "contract": "contracts/DefaultIzanaNFT721.sol:DefaultIzanaNFT721",
            "label": "_entries",
            "offset": 0,
            "slot": "0",
            "type": "t_array(t_struct(MapEntry)3314_storage)dyn_storage"
          },
          {
            "astId": 3321,
            "contract": "contracts/DefaultIzanaNFT721.sol:DefaultIzanaNFT721",
            "label": "_indexes",
            "offset": 0,
            "slot": "1",
            "type": "t_mapping(t_bytes32,t_uint256)"
          }
        ],
        "numberOfBytes": "64"
      },
      "t_struct(MapEntry)3314_storage": {
        "encoding": "inplace",
        "label": "struct EnumerableMapUpgradeable.MapEntry",
        "members": [
          {
            "astId": 3311,
            "contract": "contracts/DefaultIzanaNFT721.sol:DefaultIzanaNFT721",
            "label": "_key",
            "offset": 0,
            "slot": "0",
            "type": "t_bytes32"
          },
          {
            "astId": 3313,
            "contract": "contracts/DefaultIzanaNFT721.sol:DefaultIzanaNFT721",
            "label": "_value",
            "offset": 0,
            "slot": "1",
            "type": "t_bytes32"
          }
        ],
        "numberOfBytes": "64"
      },
      "t_struct(Set)3877_storage": {
        "encoding": "inplace",
        "label": "struct EnumerableSetUpgradeable.Set",
        "members": [
          {
            "astId": 3872,
            "contract": "contracts/DefaultIzanaNFT721.sol:DefaultIzanaNFT721",
            "label": "_values",
            "offset": 0,
            "slot": "0",
            "type": "t_array(t_bytes32)dyn_storage"
          },
          {
            "astId": 3876,
            "contract": "contracts/DefaultIzanaNFT721.sol:DefaultIzanaNFT721",
            "label": "_indexes",
            "offset": 0,
            "slot": "1",
            "type": "t_mapping(t_bytes32,t_uint256)"
          }
        ],
        "numberOfBytes": "64"
      },
      "t_struct(UintSet)4263_storage": {
        "encoding": "inplace",
        "label": "struct EnumerableSetUpgradeable.UintSet",
        "members": [
          {
            "astId": 4262,
            "contract": "contracts/DefaultIzanaNFT721.sol:DefaultIzanaNFT721",
            "label": "_inner",
            "offset": 0,
            "slot": "0",
            "type": "t_struct(Set)3877_storage"
          }
        ],
        "numberOfBytes": "64"
      },
      "t_struct(UintToAddressMap)3640_storage": {
        "encoding": "inplace",
        "label": "struct EnumerableMapUpgradeable.UintToAddressMap",
        "members": [
          {
            "astId": 3639,
            "contract": "contracts/DefaultIzanaNFT721.sol:DefaultIzanaNFT721",
            "label": "_inner",
            "offset": 0,
            "slot": "0",
            "type": "t_struct(Map)3322_storage"
          }
        ],
        "numberOfBytes": "64"
      },
      "t_uint256": {
        "encoding": "inplace",
        "label": "uint256",
        "numberOfBytes": "32"
      }
    }
  }
}