{
  "address": "0xb8515CffA4E645E1C510Aa191eB8e482d6Bdb49E",
  "abi": [
    {
      "inputs": [],
      "stateMutability": "nonpayable",
      "type": "constructor"
    },
    {
      "anonymous": false,
      "inputs": [
        {
          "indexed": true,
          "internalType": "address",
          "name": "previousOwner",
          "type": "address"
        },
        {
          "indexed": true,
          "internalType": "address",
          "name": "newOwner",
          "type": "address"
        }
      ],
      "name": "OwnershipTransferred",
      "type": "event"
    },
    {
      "inputs": [
        {
          "internalType": "address",
          "name": "",
          "type": "address"
        }
      ],
      "name": "contracts",
      "outputs": [
        {
          "internalType": "bool",
          "name": "",
          "type": "bool"
        }
      ],
      "stateMutability": "view",
      "type": "function"
    },
    {
      "inputs": [],
      "name": "delayPeriod",
      "outputs": [
        {
          "internalType": "uint256",
          "name": "",
          "type": "uint256"
        }
      ],
      "stateMutability": "view",
      "type": "function"
    },
    {
      "inputs": [],
      "name": "delegateProxyImplementation",
      "outputs": [
        {
          "internalType": "address",
          "name": "",
          "type": "address"
        }
      ],
      "stateMutability": "view",
      "type": "function"
    },
    {
      "inputs": [
        {
          "internalType": "address",
          "name": "addr",
          "type": "address"
        }
      ],
      "name": "endGrantAuthentication",
      "outputs": [],
      "stateMutability": "nonpayable",
      "type": "function"
    },
    {
      "inputs": [
        {
          "internalType": "address",
          "name": "authAddress",
          "type": "address"
        }
      ],
      "name": "grantInitialAuthentication",
      "outputs": [],
      "stateMutability": "nonpayable",
      "type": "function"
    },
    {
      "inputs": [],
      "name": "initialAddressSet",
      "outputs": [
        {
          "internalType": "bool",
          "name": "",
          "type": "bool"
        }
      ],
      "stateMutability": "view",
      "type": "function"
    },
    {
      "inputs": [],
      "name": "name",
      "outputs": [
        {
          "internalType": "string",
          "name": "",
          "type": "string"
        }
      ],
      "stateMutability": "view",
      "type": "function"
    },
    {
      "inputs": [],
      "name": "owner",
      "outputs": [
        {
          "internalType": "address",
          "name": "",
          "type": "address"
        }
      ],
      "stateMutability": "view",
      "type": "function"
    },
    {
      "inputs": [
        {
          "internalType": "address",
          "name": "",
          "type": "address"
        }
      ],
      "name": "pending",
      "outputs": [
        {
          "internalType": "uint256",
          "name": "",
          "type": "uint256"
        }
      ],
      "stateMutability": "view",
      "type": "function"
    },
    {
      "inputs": [
        {
          "internalType": "address",
          "name": "",
          "type": "address"
        }
      ],
      "name": "proxies",
      "outputs": [
        {
          "internalType": "contract OwnableDelegateProxy",
          "name": "",
          "type": "address"
        }
      ],
      "stateMutability": "view",
      "type": "function"
    },
    {
      "inputs": [],
      "name": "registerProxy",
      "outputs": [
        {
          "internalType": "contract OwnableDelegateProxy",
          "name": "proxy",
          "type": "address"
        }
      ],
      "stateMutability": "nonpayable",
      "type": "function"
    },
    {
      "inputs": [
        {
          "internalType": "address",
          "name": "user",
          "type": "address"
        }
      ],
      "name": "registerProxyFor",
      "outputs": [
        {
          "internalType": "contract OwnableDelegateProxy",
          "name": "proxy",
          "type": "address"
        }
      ],
      "stateMutability": "nonpayable",
      "type": "function"
    },
    {
      "inputs": [],
      "name": "registerProxyOverride",
      "outputs": [
        {
          "internalType": "contract OwnableDelegateProxy",
          "name": "proxy",
          "type": "address"
        }
      ],
      "stateMutability": "nonpayable",
      "type": "function"
    },
    {
      "inputs": [],
      "name": "renounceOwnership",
      "outputs": [],
      "stateMutability": "nonpayable",
      "type": "function"
    },
    {
      "inputs": [
        {
          "internalType": "address",
          "name": "addr",
          "type": "address"
        }
      ],
      "name": "revokeAuthentication",
      "outputs": [],
      "stateMutability": "nonpayable",
      "type": "function"
    },
    {
      "inputs": [
        {
          "internalType": "uint256",
          "name": "_delayPeriod",
          "type": "uint256"
        }
      ],
      "name": "setDelayPeriod",
      "outputs": [],
      "stateMutability": "nonpayable",
      "type": "function"
    },
    {
      "inputs": [
        {
          "internalType": "address",
          "name": "addr",
          "type": "address"
        }
      ],
      "name": "startGrantAuthentication",
      "outputs": [],
      "stateMutability": "nonpayable",
      "type": "function"
    },
    {
      "inputs": [
        {
          "internalType": "address",
          "name": "from",
          "type": "address"
        },
        {
          "internalType": "address",
          "name": "to",
          "type": "address"
        }
      ],
      "name": "transferAccessTo",
      "outputs": [],
      "stateMutability": "nonpayable",
      "type": "function"
    },
    {
      "inputs": [
        {
          "internalType": "address",
          "name": "newOwner",
          "type": "address"
        }
      ],
      "name": "transferOwnership",
      "outputs": [],
      "stateMutability": "nonpayable",
      "type": "function"
    }
  ],
  "transactionHash": "0x016eddfe863b2b29d5bc848c807e86f7078a63d90b8c8b42533f781da9d833e2",
  "args": [],
  "numDeployments": 1,
  "solcInputHash": "90ce8ac33db5a5561a6dddc82de03511",
  "bytecode": "0x60806040526006805461ffff1916905534801561001b57600080fd5b50600061002661018c565b600080546001600160a01b0319166001600160a01b0383169081178255604051929350917f8be0079c531659141344cd1fd0a4f28419497f9722a3daafe3b4186f6b6457e0908290a350600060405161007e90610190565b604051809103906000f08015801561009a573d6000803e3d6000fd5b506040805163485cc95560e01b81523060048201819052602482015290519192506001600160a01b0383169163485cc9559160448082019260009290919082900301818387803b1580156100ed57600080fd5b505af1158015610101573d6000803e3d6000fd5b505060408051634c93505f60e01b81526001600482015290516001600160a01b0385169350634c93505f9250602480830192600092919082900301818387803b15801561014d57600080fd5b505af1158015610161573d6000803e3d6000fd5b5050600180546001600160a01b0319166001600160a01b0394909416939093179092555061019d9050565b3390565b610c3780611d5583390190565b611ba9806101ac6000396000f3fe60806040523480156200001157600080fd5b5060043610620001715760003560e01c8063715018a611620000e1578063d4e8e063116200008d578063ddd81f82116200006f578063ddd81f8214620003e8578063ef7f383414620003f2578063f2fde38b146200041b5762000171565b8063d4e8e063146200038e578063dcfa922214620003b75762000171565b806397204d8e11620000c357806397204d8e1462000351578063b1c94d94146200035b578063c455279114620003655762000171565b8063715018a6146200033d5780638da5cb5b14620003475762000171565b80633d57210711620001415780635eebea2011620001235780635eebea2014620002cf578063631d9e3f146200030a57806369dc9ff314620003145762000171565b80633d572107146200028657806353376d1f14620002a65762000171565b8062686741146200017657806306fdde0314620001bb5780631a86ac4f146200023d57806338b6e407146200025b575b600080fd5b6200019f600480360360208110156200018e57600080fd5b50356001600160a01b031662000444565b604080516001600160a01b039092168252519081900360200190f35b620001c562000609565b6040805160208082528351818301528351919283929083019185019080838360005b8381101562000201578181015183820152602001620001e7565b50505050905090810190601f1680156200022f5780820380516001836020036101000a031916815260200191505b509250505060405180910390f35b6200024762000642565b604080519115158252519081900360200190f35b62000284600480360360208110156200027357600080fd5b50356001600160a01b031662000650565b005b62000284600480360360208110156200029e57600080fd5b5035620007a1565b6200028460048036036020811015620002be57600080fd5b50356001600160a01b03166200081f565b620002f860048036036020811015620002e757600080fd5b50356001600160a01b0316620008b9565b60408051918252519081900360200190f35b6200019f620008cb565b62000247600480360360208110156200032c57600080fd5b50356001600160a01b031662000a19565b6200028462000a2e565b6200019f62000af1565b6200019f62000b00565b620002f862000b0f565b6200019f600480360360208110156200037d57600080fd5b50356001600160a01b031662000b15565b6200028460048036036020811015620003a657600080fd5b50356001600160a01b031662000b30565b6200028460048036036040811015620003cf57600080fd5b506001600160a01b038135811691602001351662000c42565b6200019f62000d35565b62000284600480360360208110156200040a57600080fd5b50356001600160a01b031662000d47565b62000284600480360360208110156200043357600080fd5b50356001600160a01b031662000e3c565b6001600160a01b0381811660009081526002602052604081205490911615620004b4576040805162461bcd60e51b815260206004820152601860248201527f5573657220616c72656164792068617320612070726f78790000000000000000604482015290519081900360640190fd5b600154604080516001600160a01b0380861660248301523060448084019190915283518084039091018152606490920183526020820180517bffffffffffffffffffffffffffffffffffffffffffffffffffffffff1663485cc95560e01b179052915185939290921691620005299062000f5b565b80846001600160a01b03168152602001836001600160a01b0316815260200180602001828103825283818151815260200191508051906020019080838360005b838110156200058357818101518382015260200162000569565b50505050905090810190601f168015620005b15780820380516001836020036101000a031916815260200191505b50945050505050604051809103906000f080158015620005d5573d6000803e3d6000fd5b506001600160a01b03928316600090815260026020526040902080546001600160a01b031916938216939093179092555090565b6040518060400160405280601e81526020017f57797665726e2050726f746f636f6c2050726f7879205265676973747279000081525081565b600654610100900460ff1681565b6200065a62000f57565b6001600160a01b03166200066d62000af1565b6001600160a01b031614620006c9576040805162461bcd60e51b815260206004820181905260248201527f4f776e61626c653a2063616c6c6572206973206e6f7420746865206f776e6572604482015290519081900360640190fd5b6001600160a01b03811660009081526004602052604090205460ff161580156200070a57506001600160a01b03811660009081526003602052604090205415155b80156200073357506005546001600160a01b038216600090815260036020526040902054429101105b620007705760405162461bcd60e51b815260040180806020018281038252604681526020018062001a916046913960600191505060405180910390fd5b6001600160a01b0316600090815260036020908152604080832083905560049091529020805460ff19166001179055565b620007ab62000f57565b6001600160a01b0316620007be62000af1565b6001600160a01b0316146200081a576040805162461bcd60e51b815260206004820181905260248201527f4f776e61626c653a2063616c6c6572206973206e6f7420746865206f776e6572604482015290519081900360640190fd5b600555565b6200082962000f57565b6001600160a01b03166200083c62000af1565b6001600160a01b03161462000898576040805162461bcd60e51b815260206004820181905260248201527f4f776e61626c653a2063616c6c6572206973206e6f7420746865206f776e6572604482015290519081900360640190fd5b6001600160a01b03166000908152600460205260409020805460ff19169055565b60036020526000908152604090205481565b6001546040805133602482018190523060448084019190915283518084039091018152606490920183526020820180517bffffffffffffffffffffffffffffffffffffffffffffffffffffffff1663485cc95560e01b17905291516000936001600160a01b031691906200093f9062000f5b565b80846001600160a01b03168152602001836001600160a01b0316815260200180602001828103825283818151815260200191508051906020019080838360005b83811015620009995781810151838201526020016200097f565b50505050905090810190601f168015620009c75780820380516001836020036101000a031916815260200191505b50945050505050604051809103906000f080158015620009eb573d6000803e3d6000fd5b5033600090815260026020526040902080546001600160a01b0319166001600160a01b038316179055919050565b60046020526000908152604090205460ff1681565b62000a3862000f57565b6001600160a01b031662000a4b62000af1565b6001600160a01b03161462000aa7576040805162461bcd60e51b815260206004820181905260248201527f4f776e61626c653a2063616c6c6572206973206e6f7420746865206f776e6572604482015290519081900360640190fd5b600080546040516001600160a01b03909116907f8be0079c531659141344cd1fd0a4f28419497f9722a3daafe3b4186f6b6457e0908390a3600080546001600160a01b0319169055565b6000546001600160a01b031690565b6001546001600160a01b031681565b60055481565b6002602052600090815260409020546001600160a01b031681565b62000b3a62000f57565b6001600160a01b031662000b4d62000af1565b6001600160a01b03161462000ba9576040805162461bcd60e51b815260206004820181905260248201527f4f776e61626c653a2063616c6c6572206973206e6f7420746865206f776e6572604482015290519081900360640190fd5b6001600160a01b03811660009081526004602052604090205460ff1615801562000be957506001600160a01b038116600090815260036020526040902054155b62000c265760405162461bcd60e51b815260040180806020018281038252603381526020018062001b416033913960400191505060405180910390fd5b6001600160a01b03166000908152600360205260409020429055565b6001600160a01b038083166000908152600260205260409020541633811462000c9d5760405162461bcd60e51b815260040180806020018281038252602e81526020018062001a3d602e913960400191505060405180910390fd5b6001600160a01b03828116600090815260026020526040902054161562000cf65760405162461bcd60e51b815260040180806020018281038252603081526020018062001ad76030913960400191505060405180910390fd5b6001600160a01b0392831660009081526002602052604080822080546001600160a01b0319908116909155938516825290208054919093169116179055565b600062000d423362000444565b905090565b62000d5162000f57565b6001600160a01b031662000d6462000af1565b6001600160a01b03161462000dc0576040805162461bcd60e51b815260206004820181905260248201527f4f776e61626c653a2063616c6c6572206973206e6f7420746865206f776e6572604482015290519081900360640190fd5b600654610100900460ff161562000e095760405162461bcd60e51b815260040180806020018281038252603a81526020018062001b07603a913960400191505060405180910390fd5b6006805461ff0019166101001790556001600160a01b03166000908152600460205260409020805460ff19166001179055565b62000e4662000f57565b6001600160a01b031662000e5962000af1565b6001600160a01b03161462000eb5576040805162461bcd60e51b815260206004820181905260248201527f4f776e61626c653a2063616c6c6572206973206e6f7420746865206f776e6572604482015290519081900360640190fd5b6001600160a01b03811662000efc5760405162461bcd60e51b815260040180806020018281038252602681526020018062001a6b6026913960400191505060405180910390fd5b600080546040516001600160a01b03808516939216917f8be0079c531659141344cd1fd0a4f28419497f9722a3daafe3b4186f6b6457e091a3600080546001600160a01b0319166001600160a01b0392909216919091179055565b3390565b610ad38062000f6a8339019056fe608060405234801561001057600080fd5b50604051610ad3380380610ad38339818101604052606081101561003357600080fd5b8151602083015160408085018051915193959294830192918464010000000082111561005e57600080fd5b90830190602082018581111561007357600080fd5b825164010000000081118282018810171561008d57600080fd5b82525081516020918201929091019080838360005b838110156100ba5781810151838201526020016100a2565b50505050905090810190601f1680156100e75780820380516001836020036101000a031916815260200191505b506040525050506001600160a01b038316610149576040805162461bcd60e51b815260206004820152601360248201527f6f776e65723a207a65726f206164647265737300000000000000000000000000604482015290519081900360640190fd5b6001600160a01b03821661018e5760405162461bcd60e51b8152600401808060200182810382526023815260200180610a606023913960400191505060405180910390fd5b6101978361028a565b6101a0826102ac565b6000826001600160a01b0316826040518082805190602001908083835b602083106101dc5780518252601f1990920191602091820191016101bd565b6001836020036101000a038019825116818451168082178552505050505050905001915050600060405180830381855af49150503d806000811461023c576040519150601f19603f3d011682016040523d82523d6000602084013e610241565b606091505b50509050806102815760405162461bcd60e51b815260040180806020018281038252602a815260200180610aa9602a913960400191505060405180910390fd5b50505050610341565b600180546001600160a01b0319166001600160a01b0392909216919091179055565b6000546001600160a01b03828116911614156102f95760405162461bcd60e51b8152600401808060200182810382526026815260200180610a836026913960400191505060405180910390fd5b600080546001600160a01b0319166001600160a01b038316908117825560405190917fbc7cd75a20ee27fd9adebab32041f755214dbc6bffa90cc0225b39da2e5c2d3b91a250565b610710806103506000396000f3fe6080604052600436106100745760003560e01c80634f1ef2861161004e5780634f1ef286146101165780635c60da1b146101cc5780636fde8202146101e1578063f1739cae146101f657610083565b8063025313a21461008b5780633659cfe6146100bc5780634555d5c9146100ef57610083565b3661008357610081610229565b005b610081610229565b34801561009757600080fd5b506100a06102b5565b604080516001600160a01b039092168252519081900360200190f35b3480156100c857600080fd5b50610081600480360360208110156100df57600080fd5b50356001600160a01b03166102c4565b3480156100fb57600080fd5b50610104610327565b60408051918252519081900360200190f35b6100816004803603604081101561012c57600080fd5b6001600160a01b03823516919081019060408101602082013564010000000081111561015757600080fd5b82018360208201111561016957600080fd5b8035906020019184600183028401116401000000008311171561018b57600080fd5b91908080601f01602080910402602001604051908101604052809392919081815260200183838082843760009201919091525092955061032c945050505050565b3480156101d857600080fd5b506100a0610488565b3480156101ed57600080fd5b506100a0610497565b34801561020257600080fd5b506100816004803603602081101561021957600080fd5b50356001600160a01b03166104a6565b6000610233610488565b90506001600160a01b038116610290576040805162461bcd60e51b815260206004820152601d60248201527f50726f787920696d706c656d656e746174696f6e207265717569726564000000604482015290519081900360640190fd5b60405136600082376000803683855af43d806000843e8180156102b1578184f35b8184fd5b60006102bf610497565b905090565b6102cc6102b5565b6001600160a01b0316336001600160a01b03161461031b5760405162461bcd60e51b81526004018080602001828103825260298152602001806106b26029913960400191505060405180910390fd5b61032481610596565b50565b600290565b6103346102b5565b6001600160a01b0316336001600160a01b0316146103835760405162461bcd60e51b81526004018080602001828103825260298152602001806106b26029913960400191505060405180910390fd5b61038c826102c4565b6000306001600160a01b0316826040518082805190602001908083835b602083106103c85780518252601f1990920191602091820191016103a9565b6001836020036101000a038019825116818451168082178552505050505050905001915050600060405180830381855af49150503d8060008114610428576040519150601f19603f3d011682016040523d82523d6000602084013e61042d565b606091505b5050905080610483576040805162461bcd60e51b815260206004820152601f60248201527f43616c6c206661696c65642061667465722070726f7879207570677261646500604482015290519081900360640190fd5b505050565b6000546001600160a01b031690565b6001546001600160a01b031690565b6104ae6102b5565b6001600160a01b0316336001600160a01b0316146104fd5760405162461bcd60e51b81526004018080602001828103825260298152602001806106b26029913960400191505060405180910390fd5b6001600160a01b0381166105425760405162461bcd60e51b815260040180806020018281038252602481526020018061068e6024913960400191505060405180910390fd5b7f5a3e66efaa1e445ebd894728a69d6959842ea1e97bd79b892797106e270efcd961056b6102b5565b604080516001600160a01b03928316815291841660208301528051918290030190a161032481610638565b6000546001600160a01b03828116911614156105e35760405162461bcd60e51b81526004018080602001828103825260268152602001806106686026913960400191505060405180910390fd5b6000805473ffffffffffffffffffffffffffffffffffffffff19166001600160a01b038316908117825560405190917fbc7cd75a20ee27fd9adebab32041f755214dbc6bffa90cc0225b39da2e5c2d3b91a250565b6001805473ffffffffffffffffffffffffffffffffffffffff19166001600160a01b039290921691909117905556fe50726f787920616c72656164792075736573207468697320696d706c656d656e746174696f6e4e6577206f776e65722063616e6e6f7420626520746865206e756c6c20616464726573734f6e6c79207468652070726f7879206f776e65722063616e2063616c6c2074686973206d6574686f64a2646970667358221220753648c84bf578d49e9446a63e6d297a36e1147bb95f7d0535acf9cf393b1ff964736f6c63430007050033696e697469616c496d706c656d656e746174696f6e3a207a65726f206164647265737350726f787920616c72656164792075736573207468697320696d706c656d656e746174696f6e4f776e61626c6544656c656761746550726f7879206661696c656420696d706c656d656e746174696f6e50726f7879207472616e736665722063616e206f6e6c792062652063616c6c6564206279207468652070726f78794f776e61626c653a206e6577206f776e657220697320746865207a65726f2061646472657373436f6e7472616374206973206e6f206c6f6e6765722070656e64696e67206f722068617320616c7265616479206265656e20617070726f76656420627920726567697374727950726f7879207472616e7366657220686173206578697374696e672070726f78792061732064657374696e6174696f6e57797665726e2050726f746f636f6c2050726f787920526567697374727920696e697469616c206164647265737320616c726561647920736574436f6e747261637420697320616c726561647920616c6c6f77656420696e2072656769737472792c206f722070656e64696e67a2646970667358221220e9737df423ac51f6dc4d0e0ad3f1b0ae8967793b65571fef8329c7b1381151b764736f6c6343000705003360806040526001805460ff60a01b1916905534801561001d57600080fd5b50610c0a8061002d6000396000f3fe60806040526004361061009a5760003560e01c80634f8632ba116100695780636fde82021161004e5780636fde8202146103e95780637b103999146103fe5780638f4ffcb114610413576100d7565b80634f8632ba1461038f57806363d256ce146103c0576100d7565b80631b0f7ba91461010f5780633f801f911461025b578063485cc955146103285780634c93505f14610363576100d7565b366100d75760408051348152905133917fa419615bc8fda4c87663805ee2a3597a6d71c1d476911d9892f340d965bc7bf1919081900360200190a2005b60408051348152905133917fa419615bc8fda4c87663805ee2a3597a6d71c1d476911d9892f340d965bc7bf1919081900360200190a2005b34801561011b57600080fd5b506101da6004803603606081101561013257600080fd5b6001600160a01b038235169160ff6020820135169181019060608101604082013564010000000081111561016557600080fd5b82018360208201111561017757600080fd5b8035906020019184600183028401116401000000008311171561019957600080fd5b91908080601f0160208091040260200160405190810160405280939291908181526020018383808284376000920191909152509295506104e5945050505050565b60405180831515815260200180602001828103825283818151815260200191508051906020019080838360005b8381101561021f578181015183820152602001610207565b50505050905090810190601f16801561024c5780820380516001836020036101000a031916815260200191505b50935050505060405180910390f35b34801561026757600080fd5b506103266004803603606081101561027e57600080fd5b6001600160a01b038235169160ff602082013516918101906060810160408201356401000000008111156102b157600080fd5b8201836020820111156102c357600080fd5b803590602001918460018302840111640100000000831117156102e557600080fd5b91908080601f016020809104026020016040519081016040528093929190818152602001838380828437600092019190915250929550610762945050505050565b005b34801561033457600080fd5b506103266004803603604081101561034b57600080fd5b506001600160a01b03813581169160200135166107ca565b34801561036f57600080fd5b506103266004803603602081101561038657600080fd5b5035151561086c565b34801561039b57600080fd5b506103a4610908565b604080516001600160a01b039092168252519081900360200190f35b3480156103cc57600080fd5b506103d5610917565b604080519115158252519081900360200190f35b3480156103f557600080fd5b506103a4610927565b34801561040a57600080fd5b506103a4610936565b34801561041f57600080fd5b506103266004803603608081101561043657600080fd5b6001600160a01b03823581169260208101359260408201359092169181019060808101606082013564010000000081111561047057600080fd5b82018360208201111561048257600080fd5b803590602001918460018302840111640100000000831117156104a457600080fd5b91908080601f016020809104026020016040519081016040528093929190818152602001838380828437600092019190915250929550610945945050505050565b6002546000906060906001600160a01b03163314806105a55750600354600160a01b900460ff161580156105a55750600354604080517f69dc9ff300000000000000000000000000000000000000000000000000000000815233600482015290516001600160a01b03909216916369dc9ff391602480820192602092909190829003018186803b15801561057857600080fd5b505afa15801561058c573d6000803e3d6000fd5b505050506040513d60208110156105a257600080fd5b50515b6105e05760405162461bcd60e51b815260040180806020018281038252608a815260200180610b18608a913960a00191505060405180910390fd5b60008460018111156105ee57fe5b14156106a057846001600160a01b0316836040518082805190602001908083835b6020831061062e5780518252601f19909201916020918201910161060f565b6001836020036101000a0380198251168184511680821785525050505050509050019150506000604051808303816000865af19150503d8060008114610690576040519150601f19603f3d011682016040523d82523d6000602084013e610695565b606091505b50909250905061075a565b60018460018111156106ae57fe5b141561075a57846001600160a01b0316836040518082805190602001908083835b602083106106ee5780518252601f1990920191602091820191016106cf565b6001836020036101000a038019825116818451168082178552505050505050905001915050600060405180830381855af49150503d806000811461074e576040519150601f19603f3d011682016040523d82523d6000602084013e610753565b606091505b5090925090505b935093915050565b600061076f8484846104e5565b509050806107c4576040805162461bcd60e51b815260206004820152601660248201527f50726f787920617373657274696f6e206661696c656400000000000000000000604482015290519081900360640190fd5b50505050565b600154600160a01b900460ff16156108135760405162461bcd60e51b8152600401808060200182810382526027815260200180610af16027913960400191505060405180910390fd5b6001805460ff60a01b1916600160a01b179055600280546001600160a01b039384167fffffffffffffffffffffffff00000000000000000000000000000000000000009182161790915560038054929093169116179055565b6002546001600160a01b031633146108b55760405162461bcd60e51b8152600401808060200182810382526033815260200180610ba26033913960400191505060405180910390fd5b60038054821515600160a01b810260ff60a01b199092169190911790915560408051918252517f2165014523a6f4135deffed62d70149aad59b64de5aac51e3abbcbe2a83e2f7e9181900360200190a150565b6002546001600160a01b031681565b600354600160a01b900460ff1681565b6001546001600160a01b031690565b6003546001600160a01b031681565b604080517f23b872dd0000000000000000000000000000000000000000000000000000000081526001600160a01b03868116600483015230602483015260448201869052915184928316916323b872dd9160648083019260209291908290030181600087803b1580156109b757600080fd5b505af11580156109cb573d6000803e3d6000fd5b505050506040513d60208110156109e157600080fd5b5051610a34576040805162461bcd60e51b815260206004820152601b60248201527f455243323020746f6b656e207472616e73666572206661696c65640000000000604482015290519081900360640190fd5b826001600160a01b0316856001600160a01b03167fd65b48fd35864b3528d38e44760be5553248f89bf3ff6b06cca57817cc2650bf86856040518083815260200180602001828103825283818151815260200191508051906020019080838360005b83811015610aae578181015183820152602001610a96565b50505050905090810190601f168015610adb5780820380516001836020036101000a031916815260200191505b50935050505060405180910390a3505050505056fe41757468656e746963617465642070726f787920616c726561647920696e697469616c697a656441757468656e746963617465642070726f78792063616e206f6e6c792062652063616c6c65642062792069747320757365722c206f72206279206120636f6e747261637420617574686f72697a656420627920746865207265676973747279206173206c6f6e6720617320746865207573657220686173206e6f74207265766f6b65642061636365737341757468656e746963617465642070726f78792063616e206f6e6c79206265207265766f6b6564206279206974732075736572a26469706673582212206096013be1bf21b12469999c315499b3357c5d7f935cb373c0965046ece29e4364736f6c63430007050033",
  "devdoc": {
    "author": "Wyvern Protocol Developers",
    "kind": "dev",
    "methods": {
      "endGrantAuthentication(address)": {
        "details": "ProxyRegistry owner only",
        "params": {
          "addr": "Address to which to grant permissions"
        }
      },
      "grantInitialAuthentication(address)": {
        "details": "No delay, can only be called once - after that the standard registry process with a delay must be used",
        "params": {
          "authAddress": "Address of the contract to grant authentication"
        }
      },
      "owner()": {
        "details": "Returns the address of the current owner."
      },
      "registerProxy()": {
        "details": "Must be called by the user which the proxy is for, creates a new AuthenticatedProxy",
        "returns": {
          "proxy": "New AuthenticatedProxy contract"
        }
      },
      "registerProxyFor(address)": {
        "details": "Can be called by any user",
        "returns": {
          "proxy": "New AuthenticatedProxy contract"
        }
      },
      "registerProxyOverride()": {
        "details": "Must be called by the user which the proxy is for, creates a new AuthenticatedProxy",
        "returns": {
          "proxy": "New AuthenticatedProxy contract"
        }
      },
      "renounceOwnership()": {
        "details": "Leaves the contract without owner. It will not be possible to call `onlyOwner` functions anymore. Can only be called by the current owner. NOTE: Renouncing ownership will leave the contract without an owner, thereby removing any functionality that is only available to the owner."
      },
      "revokeAuthentication(address)": {
        "details": "ProxyRegistry owner only",
        "params": {
          "addr": "Address of which to revoke permissions"
        }
      },
      "startGrantAuthentication(address)": {
        "details": "ProxyRegistry owner only",
        "params": {
          "addr": "Address to which to grant permissions"
        }
      },
      "transferOwnership(address)": {
        "details": "Transfers ownership of the contract to a new account (`newOwner`). Can only be called by the current owner."
      }
    },
    "title": "WyvernRegistry",
    "version": 1
  },
  "userdoc": {
    "kind": "user",
    "methods": {
      "endGrantAuthentication(address)": {
        "notice": "End the process to enable access for specified contract after delay period has passed."
      },
      "grantInitialAuthentication(address)": {
        "notice": "Grant authentication to the initial Exchange protocol contract"
      },
      "registerProxy()": {
        "notice": "Register a proxy contract with this registry"
      },
      "registerProxyFor(address)": {
        "notice": "Register a proxy contract with this registry"
      },
      "registerProxyOverride()": {
        "notice": "Register a proxy contract with this registry, overriding any existing proxy"
      },
      "revokeAuthentication(address)": {
        "notice": "Revoke access for specified contract. Can be done instantly."
      },
      "startGrantAuthentication(address)": {
        "notice": "Start the process to enable access for specified contract. Subject to delay period."
      },
      "transferAccessTo(address,address)": {
        "notice": "Transfer access"
      }
    },
    "version": 1
  },
  "storageLayout": {
    "storage": [
      {
        "astId": 4453,
        "contract": "contracts/IzanaNFTRegistry.sol:IzanaNFTRegistry",
        "label": "_owner",
        "offset": 0,
        "slot": "0",
        "type": "t_address"
      },
      {
        "astId": 14965,
        "contract": "contracts/IzanaNFTRegistry.sol:IzanaNFTRegistry",
        "label": "delegateProxyImplementation",
        "offset": 0,
        "slot": "1",
        "type": "t_address"
      },
      {
        "astId": 14970,
        "contract": "contracts/IzanaNFTRegistry.sol:IzanaNFTRegistry",
        "label": "proxies",
        "offset": 0,
        "slot": "2",
        "type": "t_mapping(t_address,t_contract(OwnableDelegateProxy)14952)"
      },
      {
        "astId": 14974,
        "contract": "contracts/IzanaNFTRegistry.sol:IzanaNFTRegistry",
        "label": "pending",
        "offset": 0,
        "slot": "3",
        "type": "t_mapping(t_address,t_uint256)"
      },
      {
        "astId": 14978,
        "contract": "contracts/IzanaNFTRegistry.sol:IzanaNFTRegistry",
        "label": "contracts",
        "offset": 0,
        "slot": "4",
        "type": "t_mapping(t_address,t_bool)"
      },
      {
        "astId": 14980,
        "contract": "contracts/IzanaNFTRegistry.sol:IzanaNFTRegistry",
        "label": "delayPeriod",
        "offset": 0,
        "slot": "5",
        "type": "t_uint256"
      },
      {
        "astId": 14296,
        "contract": "contracts/IzanaNFTRegistry.sol:IzanaNFTRegistry",
        "label": "reentrancyLock",
        "offset": 0,
        "slot": "6",
        "type": "t_bool"
      },
      {
        "astId": 10651,
        "contract": "contracts/IzanaNFTRegistry.sol:IzanaNFTRegistry",
        "label": "initialAddressSet",
        "offset": 1,
        "slot": "6",
        "type": "t_bool"
      }
    ],
    "types": {
      "t_address": {
        "encoding": "inplace",
        "label": "address",
        "numberOfBytes": "20"
      },
      "t_bool": {
        "encoding": "inplace",
        "label": "bool",
        "numberOfBytes": "1"
      },
      "t_contract(OwnableDelegateProxy)14952": {
        "encoding": "inplace",
        "label": "contract OwnableDelegateProxy",
        "numberOfBytes": "20"
      },
      "t_mapping(t_address,t_bool)": {
        "encoding": "mapping",
        "key": "t_address",
        "label": "mapping(address => bool)",
        "numberOfBytes": "32",
        "value": "t_bool"
      },
      "t_mapping(t_address,t_contract(OwnableDelegateProxy)14952)": {
        "encoding": "mapping",
        "key": "t_address",
        "label": "mapping(address => contract OwnableDelegateProxy)",
        "numberOfBytes": "32",
        "value": "t_contract(OwnableDelegateProxy)14952"
      },
      "t_mapping(t_address,t_uint256)": {
        "encoding": "mapping",
        "key": "t_address",
        "label": "mapping(address => uint256)",
        "numberOfBytes": "32",
        "value": "t_uint256"
      },
      "t_uint256": {
        "encoding": "inplace",
        "label": "uint256",
        "numberOfBytes": "32"
      }
    }
  }
}