{
  "address": "0x6f957cbB73629f54Dad94326AcDd6a891005f8C6",
  "abi": [
    {
      "inputs": [
        {
          "internalType": "contract ProxyRegistry",
          "name": "registryAddress",
          "type": "address"
        },
        {
          "internalType": "contract IzanaNFTTransferProxy",
          "name": "tokenTransferProxyAddress",
          "type": "address"
        },
        {
          "internalType": "contract RoyaltyFeeRegistry",
          "name": "royaltyFeeRegistryAddress",
          "type": "address"
        }
      ],
      "stateMutability": "nonpayable",
      "type": "constructor"
    },
    {
      "anonymous": false,
      "inputs": [
        {
          "indexed": true,
          "internalType": "bytes32",
          "name": "hash",
          "type": "bytes32"
        },
        {
          "indexed": false,
          "internalType": "address",
          "name": "exchange",
          "type": "address"
        },
        {
          "indexed": true,
          "internalType": "address",
          "name": "maker",
          "type": "address"
        },
        {
          "indexed": false,
          "internalType": "address",
          "name": "taker",
          "type": "address"
        },
        {
          "indexed": false,
          "internalType": "uint256",
          "name": "makerRelayerFee",
          "type": "uint256"
        },
        {
          "indexed": false,
          "internalType": "uint256",
          "name": "takerRelayerFee",
          "type": "uint256"
        },
        {
          "indexed": true,
          "internalType": "address",
          "name": "feeRecipient",
          "type": "address"
        },
        {
          "indexed": false,
          "internalType": "enum ExchangeMain.FeeMethod",
          "name": "feeMethod",
          "type": "uint8"
        },
        {
          "indexed": false,
          "internalType": "enum SaleKindInterface.Side",
          "name": "side",
          "type": "uint8"
        },
        {
          "indexed": false,
          "internalType": "enum SaleKindInterface.SaleKind",
          "name": "saleKind",
          "type": "uint8"
        },
        {
          "indexed": false,
          "internalType": "address",
          "name": "target",
          "type": "address"
        }
      ],
      "name": "OrderApprovedPartOne",
      "type": "event"
    },
    {
      "anonymous": false,
      "inputs": [
        {
          "indexed": true,
          "internalType": "bytes32",
          "name": "hash",
          "type": "bytes32"
        },
        {
          "indexed": false,
          "internalType": "enum AuthenticatedProxy.HowToCall",
          "name": "howToCall",
          "type": "uint8"
        },
        {
          "indexed": false,
          "internalType": "bytes",
          "name": "callData",
          "type": "bytes"
        },
        {
          "indexed": false,
          "internalType": "address",
          "name": "staticTarget",
          "type": "address"
        },
        {
          "indexed": false,
          "internalType": "bytes",
          "name": "staticExtradata",
          "type": "bytes"
        },
        {
          "indexed": false,
          "internalType": "address",
          "name": "paymentToken",
          "type": "address"
        },
        {
          "indexed": false,
          "internalType": "uint256",
          "name": "basePrice",
          "type": "uint256"
        },
        {
          "indexed": false,
          "internalType": "uint256",
          "name": "extra",
          "type": "uint256"
        },
        {
          "indexed": false,
          "internalType": "uint256",
          "name": "listingTime",
          "type": "uint256"
        },
        {
          "indexed": false,
          "internalType": "uint256",
          "name": "expirationTime",
          "type": "uint256"
        },
        {
          "indexed": false,
          "internalType": "uint256",
          "name": "salt",
          "type": "uint256"
        },
        {
          "indexed": false,
          "internalType": "bool",
          "name": "orderbookInclusionDesired",
          "type": "bool"
        }
      ],
      "name": "OrderApprovedPartTwo",
      "type": "event"
    },
    {
      "anonymous": false,
      "inputs": [
        {
          "indexed": true,
          "internalType": "bytes32",
          "name": "hash",
          "type": "bytes32"
        }
      ],
      "name": "OrderCancelled",
      "type": "event"
    },
    {
      "anonymous": false,
      "inputs": [
        {
          "indexed": false,
          "internalType": "bytes32",
          "name": "buyHash",
          "type": "bytes32"
        },
        {
          "indexed": false,
          "internalType": "bytes32",
          "name": "sellHash",
          "type": "bytes32"
        },
        {
          "indexed": false,
          "internalType": "address",
          "name": "maker",
          "type": "address"
        },
        {
          "indexed": false,
          "internalType": "address",
          "name": "taker",
          "type": "address"
        },
        {
          "indexed": false,
          "internalType": "uint256",
          "name": "price",
          "type": "uint256"
        },
        {
          "indexed": false,
          "internalType": "uint256",
          "name": "tokenId",
          "type": "uint256"
        },
        {
          "indexed": false,
          "internalType": "address",
          "name": "collection",
          "type": "address"
        },
        {
          "indexed": false,
          "internalType": "uint256",
          "name": "tokenAmount",
          "type": "uint256"
        },
        {
          "indexed": true,
          "internalType": "bytes32",
          "name": "metadata",
          "type": "bytes32"
        }
      ],
      "name": "OrdersMatched",
      "type": "event"
    },
    {
      "anonymous": false,
      "inputs": [
        {
          "indexed": true,
          "internalType": "address",
          "name": "previousOwner",
          "type": "address"
        },
        {
          "indexed": true,
          "internalType": "address",
          "name": "newOwner",
          "type": "address"
        }
      ],
      "name": "OwnershipTransferred",
      "type": "event"
    },
    {
      "inputs": [],
      "name": "INVERSE_BASIS_POINT",
      "outputs": [
        {
          "internalType": "uint256",
          "name": "",
          "type": "uint256"
        }
      ],
      "stateMutability": "view",
      "type": "function"
    },
    {
      "inputs": [
        {
          "internalType": "address[7]",
          "name": "addrs",
          "type": "address[7]"
        },
        {
          "internalType": "uint256[7]",
          "name": "uints",
          "type": "uint256[7]"
        },
        {
          "internalType": "enum ExchangeMain.FeeMethod",
          "name": "feeMethod",
          "type": "uint8"
        },
        {
          "internalType": "enum SaleKindInterface.Side",
          "name": "side",
          "type": "uint8"
        },
        {
          "internalType": "enum SaleKindInterface.SaleKind",
          "name": "saleKind",
          "type": "uint8"
        },
        {
          "internalType": "enum AuthenticatedProxy.HowToCall",
          "name": "howToCall",
          "type": "uint8"
        },
        {
          "internalType": "bytes",
          "name": "callData",
          "type": "bytes"
        },
        {
          "internalType": "bytes",
          "name": "replacementPattern",
          "type": "bytes"
        },
        {
          "internalType": "bytes",
          "name": "staticExtradata",
          "type": "bytes"
        },
        {
          "internalType": "bool",
          "name": "orderbookInclusionDesired",
          "type": "bool"
        }
      ],
      "name": "approveOrder_",
      "outputs": [],
      "stateMutability": "nonpayable",
      "type": "function"
    },
    {
      "inputs": [
        {
          "internalType": "bytes32",
          "name": "",
          "type": "bytes32"
        }
      ],
      "name": "approvedOrders",
      "outputs": [
        {
          "internalType": "bool",
          "name": "",
          "type": "bool"
        }
      ],
      "stateMutability": "view",
      "type": "function"
    },
    {
      "inputs": [
        {
          "internalType": "address[14]",
          "name": "addrs",
          "type": "address[14]"
        },
        {
          "internalType": "uint256[14]",
          "name": "uints",
          "type": "uint256[14]"
        },
        {
          "internalType": "uint8[8]",
          "name": "feeMethodsSidesKindsHowToCalls",
          "type": "uint8[8]"
        },
        {
          "internalType": "bytes",
          "name": "calldataBuy",
          "type": "bytes"
        },
        {
          "internalType": "bytes",
          "name": "calldataSell",
          "type": "bytes"
        },
        {
          "internalType": "bytes",
          "name": "replacementPatternBuy",
          "type": "bytes"
        },
        {
          "internalType": "bytes",
          "name": "replacementPatternSell",
          "type": "bytes"
        },
        {
          "internalType": "bytes",
          "name": "staticExtradataBuy",
          "type": "bytes"
        },
        {
          "internalType": "bytes",
          "name": "staticExtradataSell",
          "type": "bytes"
        },
        {
          "internalType": "uint8[2]",
          "name": "vs",
          "type": "uint8[2]"
        },
        {
          "internalType": "bytes32[5]",
          "name": "rssMetadata",
          "type": "bytes32[5]"
        }
      ],
      "name": "atomicMatch_",
      "outputs": [],
      "stateMutability": "payable",
      "type": "function"
    },
    {
      "inputs": [
        {
          "internalType": "address[7]",
          "name": "addrs",
          "type": "address[7]"
        },
        {
          "internalType": "uint256[7]",
          "name": "uints",
          "type": "uint256[7]"
        },
        {
          "internalType": "enum ExchangeMain.FeeMethod",
          "name": "feeMethod",
          "type": "uint8"
        },
        {
          "internalType": "enum SaleKindInterface.Side",
          "name": "side",
          "type": "uint8"
        },
        {
          "internalType": "enum SaleKindInterface.SaleKind",
          "name": "saleKind",
          "type": "uint8"
        },
        {
          "internalType": "enum AuthenticatedProxy.HowToCall",
          "name": "howToCall",
          "type": "uint8"
        },
        {
          "internalType": "bytes",
          "name": "callData",
          "type": "bytes"
        },
        {
          "internalType": "bytes",
          "name": "replacementPattern",
          "type": "bytes"
        },
        {
          "internalType": "bytes",
          "name": "staticExtradata",
          "type": "bytes"
        },
        {
          "internalType": "uint256",
          "name": "amount",
          "type": "uint256"
        }
      ],
      "name": "calculateCurrentPrice_",
      "outputs": [
        {
          "internalType": "uint256",
          "name": "",
          "type": "uint256"
        }
      ],
      "stateMutability": "view",
      "type": "function"
    },
    {
      "inputs": [
        {
          "internalType": "enum SaleKindInterface.Side",
          "name": "side",
          "type": "uint8"
        },
        {
          "internalType": "enum SaleKindInterface.SaleKind",
          "name": "saleKind",
          "type": "uint8"
        },
        {
          "internalType": "uint256",
          "name": "basePrice",
          "type": "uint256"
        },
        {
          "internalType": "uint256",
          "name": "extra",
          "type": "uint256"
        },
        {
          "internalType": "uint256",
          "name": "listingTime",
          "type": "uint256"
        },
        {
          "internalType": "uint256",
          "name": "expirationTime",
          "type": "uint256"
        },
        {
          "internalType": "uint256",
          "name": "amount",
          "type": "uint256"
        }
      ],
      "name": "calculateFinalPrice",
      "outputs": [
        {
          "internalType": "uint256",
          "name": "",
          "type": "uint256"
        }
      ],
      "stateMutability": "view",
      "type": "function"
    },
    {
      "inputs": [
        {
          "internalType": "address[14]",
          "name": "addrs",
          "type": "address[14]"
        },
        {
          "internalType": "uint256[14]",
          "name": "uints",
          "type": "uint256[14]"
        },
        {
          "internalType": "uint8[8]",
          "name": "feeMethodsSidesKindsHowToCalls",
          "type": "uint8[8]"
        },
        {
          "internalType": "bytes",
          "name": "calldataBuy",
          "type": "bytes"
        },
        {
          "internalType": "bytes",
          "name": "calldataSell",
          "type": "bytes"
        },
        {
          "internalType": "bytes",
          "name": "replacementPatternBuy",
          "type": "bytes"
        },
        {
          "internalType": "bytes",
          "name": "replacementPatternSell",
          "type": "bytes"
        },
        {
          "internalType": "bytes",
          "name": "staticExtradataBuy",
          "type": "bytes"
        },
        {
          "internalType": "bytes",
          "name": "staticExtradataSell",
          "type": "bytes"
        },
        {
          "internalType": "uint256",
          "name": "amount",
          "type": "uint256"
        }
      ],
      "name": "calculateMatchPrice_",
      "outputs": [
        {
          "internalType": "uint256",
          "name": "",
          "type": "uint256"
        }
      ],
      "stateMutability": "view",
      "type": "function"
    },
    {
      "inputs": [
        {
          "internalType": "address[7]",
          "name": "addrs",
          "type": "address[7]"
        },
        {
          "internalType": "uint256[7]",
          "name": "uints",
          "type": "uint256[7]"
        },
        {
          "internalType": "enum ExchangeMain.FeeMethod",
          "name": "feeMethod",
          "type": "uint8"
        },
        {
          "internalType": "enum SaleKindInterface.Side",
          "name": "side",
          "type": "uint8"
        },
        {
          "internalType": "enum SaleKindInterface.SaleKind",
          "name": "saleKind",
          "type": "uint8"
        },
        {
          "internalType": "enum AuthenticatedProxy.HowToCall",
          "name": "howToCall",
          "type": "uint8"
        },
        {
          "internalType": "bytes",
          "name": "callData",
          "type": "bytes"
        },
        {
          "internalType": "bytes",
          "name": "replacementPattern",
          "type": "bytes"
        },
        {
          "internalType": "bytes",
          "name": "staticExtradata",
          "type": "bytes"
        },
        {
          "internalType": "uint8",
          "name": "v",
          "type": "uint8"
        },
        {
          "internalType": "bytes32",
          "name": "r",
          "type": "bytes32"
        },
        {
          "internalType": "bytes32",
          "name": "s",
          "type": "bytes32"
        }
      ],
      "name": "cancelOrder_",
      "outputs": [],
      "stateMutability": "nonpayable",
      "type": "function"
    },
    {
      "inputs": [
        {
          "internalType": "bytes32",
          "name": "",
          "type": "bytes32"
        }
      ],
      "name": "cancelledOrFinalized",
      "outputs": [
        {
          "internalType": "bool",
          "name": "",
          "type": "bool"
        }
      ],
      "stateMutability": "view",
      "type": "function"
    },
    {
      "inputs": [
        {
          "internalType": "address[7]",
          "name": "addrs",
          "type": "address[7]"
        },
        {
          "internalType": "uint256[7]",
          "name": "uints",
          "type": "uint256[7]"
        },
        {
          "internalType": "enum ExchangeMain.FeeMethod",
          "name": "feeMethod",
          "type": "uint8"
        },
        {
          "internalType": "enum SaleKindInterface.Side",
          "name": "side",
          "type": "uint8"
        },
        {
          "internalType": "enum SaleKindInterface.SaleKind",
          "name": "saleKind",
          "type": "uint8"
        },
        {
          "internalType": "enum AuthenticatedProxy.HowToCall",
          "name": "howToCall",
          "type": "uint8"
        },
        {
          "internalType": "bytes",
          "name": "callData",
          "type": "bytes"
        },
        {
          "internalType": "bytes",
          "name": "replacementPattern",
          "type": "bytes"
        },
        {
          "internalType": "bytes",
          "name": "staticExtradata",
          "type": "bytes"
        }
      ],
      "name": "hashOrder_",
      "outputs": [
        {
          "internalType": "bytes32",
          "name": "",
          "type": "bytes32"
        }
      ],
      "stateMutability": "pure",
      "type": "function"
    },
    {
      "inputs": [
        {
          "internalType": "address[7]",
          "name": "addrs",
          "type": "address[7]"
        },
        {
          "internalType": "uint256[7]",
          "name": "uints",
          "type": "uint256[7]"
        },
        {
          "internalType": "enum ExchangeMain.FeeMethod",
          "name": "feeMethod",
          "type": "uint8"
        },
        {
          "internalType": "enum SaleKindInterface.Side",
          "name": "side",
          "type": "uint8"
        },
        {
          "internalType": "enum SaleKindInterface.SaleKind",
          "name": "saleKind",
          "type": "uint8"
        },
        {
          "internalType": "enum AuthenticatedProxy.HowToCall",
          "name": "howToCall",
          "type": "uint8"
        },
        {
          "internalType": "bytes",
          "name": "callData",
          "type": "bytes"
        },
        {
          "internalType": "bytes",
          "name": "replacementPattern",
          "type": "bytes"
        },
        {
          "internalType": "bytes",
          "name": "staticExtradata",
          "type": "bytes"
        }
      ],
      "name": "hashToSign_",
      "outputs": [
        {
          "internalType": "bytes32",
          "name": "",
          "type": "bytes32"
        }
      ],
      "stateMutability": "pure",
      "type": "function"
    },
    {
      "inputs": [],
      "name": "name",
      "outputs": [
        {
          "internalType": "string",
          "name": "",
          "type": "string"
        }
      ],
      "stateMutability": "view",
      "type": "function"
    },
    {
      "inputs": [
        {
          "internalType": "address[14]",
          "name": "addrs",
          "type": "address[14]"
        },
        {
          "internalType": "uint256[14]",
          "name": "uints",
          "type": "uint256[14]"
        },
        {
          "internalType": "uint8[8]",
          "name": "feeMethodsSidesKindsHowToCalls",
          "type": "uint8[8]"
        },
        {
          "internalType": "bytes",
          "name": "calldataBuy",
          "type": "bytes"
        },
        {
          "internalType": "bytes",
          "name": "calldataSell",
          "type": "bytes"
        },
        {
          "internalType": "bytes",
          "name": "replacementPatternBuy",
          "type": "bytes"
        },
        {
          "internalType": "bytes",
          "name": "replacementPatternSell",
          "type": "bytes"
        },
        {
          "internalType": "bytes",
          "name": "staticExtradataBuy",
          "type": "bytes"
        },
        {
          "internalType": "bytes",
          "name": "staticExtradataSell",
          "type": "bytes"
        }
      ],
      "name": "ordersCanMatch_",
      "outputs": [
        {
          "internalType": "bool",
          "name": "",
          "type": "bool"
        }
      ],
      "stateMutability": "view",
      "type": "function"
    },
    {
      "inputs": [],
      "name": "owner",
      "outputs": [
        {
          "internalType": "address",
          "name": "",
          "type": "address"
        }
      ],
      "stateMutability": "view",
      "type": "function"
    },
    {
      "inputs": [],
      "name": "registry",
      "outputs": [
        {
          "internalType": "contract ProxyRegistry",
          "name": "",
          "type": "address"
        }
      ],
      "stateMutability": "view",
      "type": "function"
    },
    {
      "inputs": [],
      "name": "renounceOwnership",
      "outputs": [],
      "stateMutability": "nonpayable",
      "type": "function"
    },
    {
      "inputs": [],
      "name": "royaltyFeeRegistry",
      "outputs": [
        {
          "internalType": "contract IRoyaltyFeeRegistry",
          "name": "",
          "type": "address"
        }
      ],
      "stateMutability": "view",
      "type": "function"
    },
    {
      "inputs": [
        {
          "internalType": "bytes32",
          "name": "",
          "type": "bytes32"
        }
      ],
      "name": "sellOrderAmountRemaining",
      "outputs": [
        {
          "internalType": "bool",
          "name": "tracking",
          "type": "bool"
        },
        {
          "internalType": "uint256",
          "name": "left",
          "type": "uint256"
        }
      ],
      "stateMutability": "view",
      "type": "function"
    },
    {
      "inputs": [],
      "name": "tokenTransferProxy",
      "outputs": [
        {
          "internalType": "contract IzanaNFTTransferProxy",
          "name": "",
          "type": "address"
        }
      ],
      "stateMutability": "view",
      "type": "function"
    },
    {
      "inputs": [
        {
          "internalType": "address",
          "name": "newOwner",
          "type": "address"
        }
      ],
      "name": "transferOwnership",
      "outputs": [],
      "stateMutability": "nonpayable",
      "type": "function"
    },
    {
      "inputs": [
        {
          "internalType": "address[7]",
          "name": "addrs",
          "type": "address[7]"
        },
        {
          "internalType": "uint256[7]",
          "name": "uints",
          "type": "uint256[7]"
        },
        {
          "internalType": "enum ExchangeMain.FeeMethod",
          "name": "feeMethod",
          "type": "uint8"
        },
        {
          "internalType": "enum SaleKindInterface.Side",
          "name": "side",
          "type": "uint8"
        },
        {
          "internalType": "enum SaleKindInterface.SaleKind",
          "name": "saleKind",
          "type": "uint8"
        },
        {
          "internalType": "enum AuthenticatedProxy.HowToCall",
          "name": "howToCall",
          "type": "uint8"
        },
        {
          "internalType": "bytes",
          "name": "callData",
          "type": "bytes"
        },
        {
          "internalType": "bytes",
          "name": "replacementPattern",
          "type": "bytes"
        },
        {
          "internalType": "bytes",
          "name": "staticExtradata",
          "type": "bytes"
        }
      ],
      "name": "validateOrderParameters_",
      "outputs": [
        {
          "internalType": "bool",
          "name": "",
          "type": "bool"
        }
      ],
      "stateMutability": "view",
      "type": "function"
    },
    {
      "inputs": [
        {
          "internalType": "address[7]",
          "name": "addrs",
          "type": "address[7]"
        },
        {
          "internalType": "uint256[7]",
          "name": "uints",
          "type": "uint256[7]"
        },
        {
          "internalType": "enum ExchangeMain.FeeMethod",
          "name": "feeMethod",
          "type": "uint8"
        },
        {
          "internalType": "enum SaleKindInterface.Side",
          "name": "side",
          "type": "uint8"
        },
        {
          "internalType": "enum SaleKindInterface.SaleKind",
          "name": "saleKind",
          "type": "uint8"
        },
        {
          "internalType": "enum AuthenticatedProxy.HowToCall",
          "name": "howToCall",
          "type": "uint8"
        },
        {
          "internalType": "bytes",
          "name": "callData",
          "type": "bytes"
        },
        {
          "internalType": "bytes",
          "name": "replacementPattern",
          "type": "bytes"
        },
        {
          "internalType": "bytes",
          "name": "staticExtradata",
          "type": "bytes"
        },
        {
          "internalType": "uint8",
          "name": "v",
          "type": "uint8"
        },
        {
          "internalType": "bytes32",
          "name": "r",
          "type": "bytes32"
        },
        {
          "internalType": "bytes32",
          "name": "s",
          "type": "bytes32"
        }
      ],
      "name": "validateOrder_",
      "outputs": [
        {
          "internalType": "bool",
          "name": "",
          "type": "bool"
        }
      ],
      "stateMutability": "view",
      "type": "function"
    }
  ],
  "transactionHash": "0xa46da50a142d34633a507082058d6316848f76f36c9671d7203f29f47d527bec",
  "args": [
    "0xb8515CffA4E645E1C510Aa191eB8e482d6Bdb49E",
    "0xE46c02eB77EC6cbF47a58E7e18a09a9D42b6b25F",
    "0xCc41B9c93504C99f4d8C32553EA60758A8d8b39E"
  ],
  "numDeployments": 1,
  "solcInputHash": "90ce8ac33db5a5561a6dddc82de03511",
  "bytecode": "0x60806040526000805460ff191690553480156200001b57600080fd5b5060405162005eb038038062005eb0833981810160405260608110156200004157600080fd5b508051602082015160409092015190919060006200005e620000f1565b60008054610100600160a81b0319166101006001600160a01b038416908102919091178255604051929350917f8be0079c531659141344cd1fd0a4f28419497f9722a3daafe3b4186f6b6457e0908290a350600380546001600160a01b03199081166001600160a01b039384161790915560018054821694831694909417909355600280549093169116179055620000f5565b3390565b615dab80620001056000396000f3fe6080604052600436106101755760003560e01c80638da5cb5b116100cb578063c16f51561161007f578063d040944111610059578063d040944114611b4a578063e57d4adb14611f23578063f2fde38b14611f4d57610175565b8063c16f5156146118e4578063cae6047f146118f9578063ce2cb0881461190e57610175565b8063a27958ae116100b0578063a27958ae1461122c578063a37c73371461146a578063accf4517146116a857610175565b80638da5cb5b146111d25780639c57bf6b146111e757610175565b8063715018a61161012d5780637b49486f116101075780637b49486f14610d0e5780638076f00514610f6c57806382c8878514610f9657610175565b8063715018a6146109095780637a5e68cf1461091e5780637b10399914610cf957610175565b806316bb98281161015e57806316bb98281461023557806356d8a0a9146106585780636b6a2548146108a257610175565b806306fdde031461017a5780630eefdbad14610204575b600080fd5b34801561018657600080fd5b5061018f611f80565b6040805160208082528351818301528351919283929083019185019080838360005b838110156101c95781810151838201526020016101b1565b50505050905090810190601f1680156101f65780820380516001836020036101000a031916815260200191505b509250505060405180910390f35b34801561021057600080fd5b50610219611fb9565b604080516001600160a01b039092168252519081900360200190f35b610656600480360361062081101561024c57600080fd5b81019080806101c00190600e806020026040519081016040528092919082600e6020028082843760009201919091525050604080516101c08181019092529295949381810193925090600e90839083908082843760009201919091525050604080516101008181019092529295949381810193925090600890839083908082843760009201919091525091949392602081019250359050600160201b8111156102f457600080fd5b82018360208201111561030657600080fd5b803590602001918460018302840111600160201b8311171561032757600080fd5b91908080601f0160208091040260200160405190810160405280939291908181526020018383808284376000920191909152509295949360208101935035915050600160201b81111561037957600080fd5b82018360208201111561038b57600080fd5b803590602001918460018302840111600160201b831117156103ac57600080fd5b91908080601f0160208091040260200160405190810160405280939291908181526020018383808284376000920191909152509295949360208101935035915050600160201b8111156103fe57600080fd5b82018360208201111561041057600080fd5b803590602001918460018302840111600160201b8311171561043157600080fd5b91908080601f0160208091040260200160405190810160405280939291908181526020018383808284376000920191909152509295949360208101935035915050600160201b81111561048357600080fd5b82018360208201111561049557600080fd5b803590602001918460018302840111600160201b831117156104b657600080fd5b91908080601f0160208091040260200160405190810160405280939291908181526020018383808284376000920191909152509295949360208101935035915050600160201b81111561050857600080fd5b82018360208201111561051a57600080fd5b803590602001918460018302840111600160201b8311171561053b57600080fd5b91908080601f0160208091040260200160405190810160405280939291908181526020018383808284376000920191909152509295949360208101935035915050600160201b81111561058d57600080fd5b82018360208201111561059f57600080fd5b803590602001918460018302840111600160201b831117156105c057600080fd5b91908080601f016020809104026020016040519081016040528093929190818152602001838380828437600092019190915250506040805180820182529396959481810194935091506002908390839080828437600092019190915250506040805160a081810190925292959493818101939250906005908390839080828437600092019190915250919450611fc89350505050565b005b34801561066457600080fd5b50610656600480360361030081101561067c57600080fd5b810190808060e001906007806020026040519081016040528092919082600760200280828437600092019190915250506040805160e081810190925292959493818101939250906007908390839080828437600092019190915250919460ff84358116956020860135821695604081013583169550606081013590921693509060a081019060800135600160201b81111561071657600080fd5b82018360208201111561072857600080fd5b803590602001918460018302840111600160201b8311171561074957600080fd5b91908080601f0160208091040260200160405190810160405280939291908181526020018383808284376000920191909152509295949360208101935035915050600160201b81111561079b57600080fd5b8201836020820111156107ad57600080fd5b803590602001918460018302840111600160201b831117156107ce57600080fd5b91908080601f0160208091040260200160405190810160405280939291908181526020018383808284376000920191909152509295949360208101935035915050600160201b81111561082057600080fd5b82018360208201111561083257600080fd5b803590602001918460018302840111600160201b8311171561085357600080fd5b91908080601f0160208091040260200160405190810160405280939291908181526020018383808284376000920191909152509295505060ff833516935050506020810135906040013561249e565b3480156108ae57600080fd5b506108f7600480360360e08110156108c557600080fd5b5060ff813581169160208101359091169060408101359060608101359060808101359060a08101359060c0013561269e565b60408051918252519081900360200190f35b34801561091557600080fd5b506106566126bd565b34801561092a57600080fd5b506108f7600480360361056081101561094257600080fd5b81019080806101c00190600e806020026040519081016040528092919082600e6020028082843760009201919091525050604080516101c08181019092529295949381810193925090600e90839083908082843760009201919091525050604080516101008181019092529295949381810193925090600890839083908082843760009201919091525091949392602081019250359050600160201b8111156109ea57600080fd5b8201836020820111156109fc57600080fd5b803590602001918460018302840111600160201b83111715610a1d57600080fd5b91908080601f0160208091040260200160405190810160405280939291908181526020018383808284376000920191909152509295949360208101935035915050600160201b811115610a6f57600080fd5b820183602082011115610a8157600080fd5b803590602001918460018302840111600160201b83111715610aa257600080fd5b91908080601f0160208091040260200160405190810160405280939291908181526020018383808284376000920191909152509295949360208101935035915050600160201b811115610af457600080fd5b820183602082011115610b0657600080fd5b803590602001918460018302840111600160201b83111715610b2757600080fd5b91908080601f0160208091040260200160405190810160405280939291908181526020018383808284376000920191909152509295949360208101935035915050600160201b811115610b7957600080fd5b820183602082011115610b8b57600080fd5b803590602001918460018302840111600160201b83111715610bac57600080fd5b91908080601f0160208091040260200160405190810160405280939291908181526020018383808284376000920191909152509295949360208101935035915050600160201b811115610bfe57600080fd5b820183602082011115610c1057600080fd5b803590602001918460018302840111600160201b83111715610c3157600080fd5b91908080601f0160208091040260200160405190810160405280939291908181526020018383808284376000920191909152509295949360208101935035915050600160201b811115610c8357600080fd5b820183602082011115610c9557600080fd5b803590602001918460018302840111600160201b83111715610cb657600080fd5b91908080601f016020809104026020016040519081016040528093929190818152602001838380828437600092019190915250929550509135925061278d915050565b348015610d0557600080fd5b50610219612bcb565b348015610d1a57600080fd5b50610f586004803603610300811015610d3257600080fd5b810190808060e001906007806020026040519081016040528092919082600760200280828437600092019190915250506040805160e081810190925292959493818101939250906007908390839080828437600092019190915250919460ff84358116956020860135821695604081013583169550606081013590921693509060a081019060800135600160201b811115610dcc57600080fd5b820183602082011115610dde57600080fd5b803590602001918460018302840111600160201b83111715610dff57600080fd5b91908080601f0160208091040260200160405190810160405280939291908181526020018383808284376000920191909152509295949360208101935035915050600160201b811115610e5157600080fd5b820183602082011115610e6357600080fd5b803590602001918460018302840111600160201b83111715610e8457600080fd5b91908080601f0160208091040260200160405190810160405280939291908181526020018383808284376000920191909152509295949360208101935035915050600160201b811115610ed657600080fd5b820183602082011115610ee857600080fd5b803590602001918460018302840111600160201b83111715610f0957600080fd5b91908080601f0160208091040260200160405190810160405280939291908181526020018383808284376000920191909152509295505060ff8335169350505060208101359060400135612bda565b604080519115158252519081900360200190f35b348015610f7857600080fd5b50610f5860048036036020811015610f8f57600080fd5b5035612ddd565b348015610fa257600080fd5b506108f760048036036102a0811015610fba57600080fd5b810190808060e001906007806020026040519081016040528092919082600760200280828437600092019190915250506040805160e081810190925292959493818101939250906007908390839080828437600092019190915250919460ff84358116956020860135821695604081013583169550606081013590921693509060a081019060800135600160201b81111561105457600080fd5b82018360208201111561106657600080fd5b803590602001918460018302840111600160201b8311171561108757600080fd5b91908080601f0160208091040260200160405190810160405280939291908181526020018383808284376000920191909152509295949360208101935035915050600160201b8111156110d957600080fd5b8201836020820111156110eb57600080fd5b803590602001918460018302840111600160201b8311171561110c57600080fd5b91908080601f0160208091040260200160405190810160405280939291908181526020018383808284376000920191909152509295949360208101935035915050600160201b81111561115e57600080fd5b82018360208201111561117057600080fd5b803590602001918460018302840111600160201b8311171561119157600080fd5b91908080601f016020809104026020016040519081016040528093929190818152602001838380828437600092019190915250929550612df2945050505050565b3480156111de57600080fd5b50610219612fc8565b3480156111f357600080fd5b506112116004803603602081101561120a57600080fd5b5035612fdc565b60408051921515835260208301919091528051918290030190f35b34801561123857600080fd5b5061065660048036036102c081101561125057600080fd5b810190808060e001906007806020026040519081016040528092919082600760200280828437600092019190915250506040805160e081810190925292959493818101939250906007908390839080828437600092019190915250919460ff84358116956020860135821695604081013583169550606081013590921693509060a081019060800135600160201b8111156112ea57600080fd5b8201836020820111156112fc57600080fd5b803590602001918460018302840111600160201b8311171561131d57600080fd5b91908080601f0160208091040260200160405190810160405280939291908181526020018383808284376000920191909152509295949360208101935035915050600160201b81111561136f57600080fd5b82018360208201111561138157600080fd5b803590602001918460018302840111600160201b831117156113a257600080fd5b91908080601f0160208091040260200160405190810160405280939291908181526020018383808284376000920191909152509295949360208101935035915050600160201b8111156113f457600080fd5b82018360208201111561140657600080fd5b803590602001918460018302840111600160201b8311171561142757600080fd5b91908080601f0160208091040260200160405190810160405280939291908181526020018383808284376000920191909152509295505050503515159050612ffb565b34801561147657600080fd5b506108f760048036036102c081101561148e57600080fd5b810190808060e001906007806020026040519081016040528092919082600760200280828437600092019190915250506040805160e081810190925292959493818101939250906007908390839080828437600092019190915250919460ff84358116956020860135821695604081013583169550606081013590921693509060a081019060800135600160201b81111561152857600080fd5b82018360208201111561153a57600080fd5b803590602001918460018302840111600160201b8311171561155b57600080fd5b91908080601f0160208091040260200160405190810160405280939291908181526020018383808284376000920191909152509295949360208101935035915050600160201b8111156115ad57600080fd5b8201836020820111156115bf57600080fd5b803590602001918460018302840111600160201b831117156115e057600080fd5b91908080601f0160208091040260200160405190810160405280939291908181526020018383808284376000920191909152509295949360208101935035915050600160201b81111561163257600080fd5b82018360208201111561164457600080fd5b803590602001918460018302840111600160201b8311171561166557600080fd5b91908080601f0160208091040260200160405190810160405280939291908181526020018383808284376000920191909152509295505091359250613171915050565b3480156116b457600080fd5b50610f5860048036036102a08110156116cc57600080fd5b810190808060e001906007806020026040519081016040528092919082600760200280828437600092019190915250506040805160e081810190925292959493818101939250906007908390839080828437600092019190915250919460ff84358116956020860135821695604081013583169550606081013590921693509060a081019060800135600160201b81111561176657600080fd5b82018360208201111561177857600080fd5b803590602001918460018302840111600160201b8311171561179957600080fd5b91908080601f0160208091040260200160405190810160405280939291908181526020018383808284376000920191909152509295949360208101935035915050600160201b8111156117eb57600080fd5b8201836020820111156117fd57600080fd5b803590602001918460018302840111600160201b8311171561181e57600080fd5b91908080601f0160208091040260200160405190810160405280939291908181526020018383808284376000920191909152509295949360208101935035915050600160201b81111561187057600080fd5b82018360208201111561188257600080fd5b803590602001918460018302840111600160201b831117156118a357600080fd5b91908080601f016020809104026020016040519081016040528093929190818152602001838380828437600092019190915250929550613349945050505050565b3480156118f057600080fd5b506102196134c0565b34801561190557600080fd5b506108f76134cf565b34801561191a57600080fd5b506108f760048036036102a081101561193257600080fd5b810190808060e001906007806020026040519081016040528092919082600760200280828437600092019190915250506040805160e081810190925292959493818101939250906007908390839080828437600092019190915250919460ff84358116956020860135821695604081013583169550606081013590921693509060a081019060800135600160201b8111156119cc57600080fd5b8201836020820111156119de57600080fd5b803590602001918460018302840111600160201b831117156119ff57600080fd5b91908080601f0160208091040260200160405190810160405280939291908181526020018383808284376000920191909152509295949360208101935035915050600160201b811115611a5157600080fd5b820183602082011115611a6357600080fd5b803590602001918460018302840111600160201b83111715611a8457600080fd5b91908080601f0160208091040260200160405190810160405280939291908181526020018383808284376000920191909152509295949360208101935035915050600160201b811115611ad657600080fd5b820183602082011115611ae857600080fd5b803590602001918460018302840111600160201b83111715611b0957600080fd5b91908080601f0160208091040260200160405190810160405280939291908181526020018383808284376000920191909152509295506134d5945050505050565b348015611b5657600080fd5b50610f586004803603610540811015611b6e57600080fd5b81019080806101c00190600e806020026040519081016040528092919082600e6020028082843760009201919091525050604080516101c08181019092529295949381810193925090600e90839083908082843760009201919091525050604080516101008181019092529295949381810193925090600890839083908082843760009201919091525091949392602081019250359050600160201b811115611c1657600080fd5b820183602082011115611c2857600080fd5b803590602001918460018302840111600160201b83111715611c4957600080fd5b91908080601f0160208091040260200160405190810160405280939291908181526020018383808284376000920191909152509295949360208101935035915050600160201b811115611c9b57600080fd5b820183602082011115611cad57600080fd5b803590602001918460018302840111600160201b83111715611cce57600080fd5b91908080601f0160208091040260200160405190810160405280939291908181526020018383808284376000920191909152509295949360208101935035915050600160201b811115611d2057600080fd5b820183602082011115611d3257600080fd5b803590602001918460018302840111600160201b83111715611d5357600080fd5b91908080601f0160208091040260200160405190810160405280939291908181526020018383808284376000920191909152509295949360208101935035915050600160201b811115611da557600080fd5b820183602082011115611db757600080fd5b803590602001918460018302840111600160201b83111715611dd857600080fd5b91908080601f0160208091040260200160405190810160405280939291908181526020018383808284376000920191909152509295949360208101935035915050600160201b811115611e2a57600080fd5b820183602082011115611e3c57600080fd5b803590602001918460018302840111600160201b83111715611e5d57600080fd5b91908080601f0160208091040260200160405190810160405280939291908181526020018383808284376000920191909152509295949360208101935035915050600160201b811115611eaf57600080fd5b820183602082011115611ec157600080fd5b803590602001918460018302840111600160201b83111715611ee257600080fd5b91908080601f01602080910402602001604051908101604052809392919081815260200183838082843760009201919091525092955061369d945050505050565b348015611f2f57600080fd5b50610f5860048036036020811015611f4657600080fd5b5035613a26565b348015611f5957600080fd5b5061065660048036036020811015611f7057600080fd5b50356001600160a01b0316613a3b565b6040518060400160405280601181526020017f497a616e614e46542045786368616e676500000000000000000000000000000081525081565b6002546001600160a01b031681565b612491604051806102a001604052808d6000600e8110611fe457fe5b60200201516001600160a01b031681526020018d6001600e811061200457fe5b60200201516001600160a01b031681526020018d6002600e811061202457fe5b60200201516001600160a01b031681526020018c6000600e811061204457fe5b602002015181526020018c6001600e811061205b57fe5b602002015181526020018d6003600e811061207257fe5b60200201516001600160a01b031681526020018b60006008811061209257fe5b602002015160ff1660018111156120a557fe5b60018111156120b057fe5b81526020018b6001602002015160ff1660018111156120cb57fe5b60018111156120d657fe5b81526020018b6002602002015160ff1660018111156120f157fe5b60018111156120fc57fe5b815260808e01516001600160a01b031660208201526040018b6003602002015160ff16600181111561212a57fe5b600181111561213557fe5b8152602081018b90526040810189905260a0808f01516001600160a01b0316606083015260808201889052018d600660200201516001600160a01b031681526020018c6002600e811061218457fe5b602002015181526020018c6003600e811061219b57fe5b602002015181526020018c6004600e81106121b257fe5b602002015181526020018c6005600e81106121c957fe5b602002015181526020018c6006600e81106121e057fe5b6020908102919091015190915260408051606081018252865160ff168152855192810192909252810184600160200201519052604080516102a08101909152808f600760200201516001600160a01b031681526020018f6008600e811061224357fe5b60200201516001600160a01b031681526020018f6009600e811061226357fe5b60200201516001600160a01b031681526020018e6007600e811061228357fe5b602002015181526020018e6008600e811061229a57fe5b602002015181526020018f600a600e81106122b157fe5b60200201516001600160a01b031681526020018d6004600881106122d157fe5b602002015160ff1660018111156122e457fe5b60018111156122ef57fe5b81526020018d6005602002015160ff16600181111561230a57fe5b600181111561231557fe5b81526020018d6006602002015160ff16600181111561233057fe5b600181111561233b57fe5b81526020018f600b60200201516001600160a01b031681526020018d60076008811061236357fe5b602002015160ff16600181111561237657fe5b600181111561238157fe5b8152602081018c9052604081018a90526060018f600c60200201516001600160a01b031681526020018781526020018f600d600e81106123bd57fe5b60200201516001600160a01b031681526020018e6009600e81106123dd57fe5b602002015181526020018e600a600e81106123f457fe5b602002015181526020018e600b600e811061240b57fe5b602002015181526020018e600c600e811061242257fe5b602002015181526020018e600d600e811061243957fe5b60200201519052604080516060810190915280876001602002015160ff1681526020018660026005811061246957fe5b602002015181526020018660036005811061248057fe5b602002015190526080860151613b67565b5050505050505050505050565b612690604051806102a001604052808e6000600781106124ba57fe5b60200201516001600160a01b031681526020018e6001600781106124da57fe5b60200201516001600160a01b031681526020018e6002600781106124fa57fe5b60200201516001600160a01b031681526020018d60006007811061251a57fe5b602002015181526020018d60016007811061253157fe5b602002015181526020018e60036007811061254857fe5b60200201516001600160a01b031681526020018c600181111561256757fe5b81526020018b600181111561257857fe5b81526020018a600181111561258957fe5b815260808f01516001600160a01b031660208201526040018960018111156125ad57fe5b815260208101899052604081018890526060018e600560200201516001600160a01b031681526020018681526020018e6006600781106125e957fe5b60200201516001600160a01b031681526020018d60026007811061260957fe5b602002015181526020018d60036007811061262057fe5b602002015181526020018d60046007811061263757fe5b602002015181526020018d60056007811061264e57fe5b602002015181526020018d60066007811061266557fe5b602002015181525060405180606001604052808660ff16815260200185815260200184815250613f97565b505050505050505050505050565b60006126af8888888888888861401a565b90505b979650505050505050565b6126c56140bf565b6001600160a01b03166126d6612fc8565b6001600160a01b031614612731576040805162461bcd60e51b815260206004820181905260248201527f4f776e61626c653a2063616c6c6572206973206e6f7420746865206f776e6572604482015290519081900360640190fd5b600080546040516101009091046001600160a01b0316907f8be0079c531659141344cd1fd0a4f28419497f9722a3daafe3b4186f6b6457e0908390a36000805474ffffffffffffffffffffffffffffffffffffffff0019169055565b60006127976156f5565b604080516102a081019091528c516001600160a01b03168152602081018d600160200201516001600160a01b031681526020018d6002600e81106127d757fe5b60200201516001600160a01b031681526020018c6000600e81106127f757fe5b602002015181526020018c6001600e811061280e57fe5b602002015181526020018d6003600e811061282557fe5b60200201516001600160a01b031681526020018b60006008811061284557fe5b602002015160ff16600181111561285857fe5b600181111561286357fe5b81526020018b6001602002015160ff16600181111561287e57fe5b600181111561288957fe5b81526020018b6002602002015160ff1660018111156128a457fe5b60018111156128af57fe5b815260808e01516001600160a01b031660208201526040018b6003602002015160ff1660018111156128dd57fe5b60018111156128e857fe5b8152602081018b90526040810189905260a0808f01516001600160a01b0316606083015260808201889052018d600660200201516001600160a01b031681526020018c6002600e811061293757fe5b602002015181526020018c6003600e811061294e57fe5b602002015181526020018c6004600e811061296557fe5b602002015181526020018c6005600e811061297c57fe5b602002015181526020018c6006600e811061299357fe5b6020020151905290506129a46156f5565b604080516102a0810190915260e08e01516001600160a01b03168152602081018e600860200201516001600160a01b031681526020018e6009600e81106129e757fe5b60200201516001600160a01b031681526020018d6007600e8110612a0757fe5b602002015181526020018d6008600e8110612a1e57fe5b602002015181526020018e600a600e8110612a3557fe5b60200201516001600160a01b031681526020018c600460088110612a5557fe5b602002015160ff166001811115612a6857fe5b6001811115612a7357fe5b81526020018c6005602002015160ff166001811115612a8e57fe5b6001811115612a9957fe5b81526020018c6006602002015160ff166001811115612ab457fe5b6001811115612abf57fe5b81526101608f01516001600160a01b031660208201526040018c6007602002015160ff166001811115612aee57fe5b6001811115612af957fe5b8152602081018b9052604081018990526101808f01516001600160a01b031660608201526080810187905260a0018e600d60200201516001600160a01b031681526020018d6009600e8110612b4a57fe5b602002015181526020018d600a600e8110612b6157fe5b602002015181526020018d600b600e8110612b7857fe5b602002015181526020018d600c600e8110612b8f57fe5b602002015181526020018d600d600e8110612ba657fe5b602002015190529050612bba8282866140c3565b9d9c50505050505050505050505050565b6001546001600160a01b031681565b6000612be46156f5565b604080516102a081019091528e516001600160a01b03168152602081018f600160200201516001600160a01b031681526020018f600260078110612c2457fe5b60200201516001600160a01b031681526020018e600060078110612c4457fe5b602002015181526020018e600160078110612c5b57fe5b602002015181526020018f600360078110612c7257fe5b60200201516001600160a01b031681526020018d6001811115612c9157fe5b81526020018c6001811115612ca257fe5b81526020018b6001811115612cb357fe5b81526020018f600460200201516001600160a01b031681526020018a6001811115612cda57fe5b8152602081018a9052604081018990526060018f600560200201516001600160a01b031681526020018781526020018f600660078110612d1657fe5b60200201516001600160a01b031681526020018e600260078110612d3657fe5b602002015181526020018e600360078110612d4d57fe5b602002015181526020018e600460078110612d6457fe5b602002015181526020018e600560078110612d7b57fe5b602002015181526020018e600660078110612d9257fe5b602002015190529050612dcb612da782614157565b8260405180606001604052808960ff16815260200188815260200187815250614190565b9e9d5050505050505050505050505050565b60056020526000908152604090205460ff1681565b6000612fba604051806102a001604052808c600060078110612e1057fe5b60200201516001600160a01b031681526020018c600160078110612e3057fe5b60200201516001600160a01b031681526020018c600260078110612e5057fe5b60200201516001600160a01b031681526020018b600060078110612e7057fe5b602002015181526020018b600160078110612e8757fe5b602002015181526020018c600360078110612e9e57fe5b60200201516001600160a01b031681526020018a6001811115612ebd57fe5b8152602001896001811115612ece57fe5b8152602001886001811115612edf57fe5b815260808d01516001600160a01b03166020820152604001876001811115612f0357fe5b8152602081018790526040810186905260a0808e01516001600160a01b0316606083015260808201869052018c600660200201516001600160a01b031681526020018b600260078110612f5257fe5b602002015181526020018b600360078110612f6957fe5b602002015181526020018b600460078110612f8057fe5b602002015181526020018b600560078110612f9757fe5b602002015181526020018b600660078110612fae57fe5b60200201519052614157565b9a9950505050505050505050565b60005461010090046001600160a01b031690565b6004602052600090815260409020805460019091015460ff9091169082565b6130036156f5565b604080516102a0810182528c516001600160a01b0390811682526020808f01518216818401528e840151909116928201929092528b516060820152908b0151608082015260a081018c600360200201516001600160a01b031681526020018a600181111561306d57fe5b815260200189600181111561307e57fe5b815260200188600181111561308f57fe5b815260808d01516001600160a01b031660208201526040018760018111156130b357fe5b8152602081018790526040810186905260a0808e01516001600160a01b0316606083015260808201869052018c600660200201516001600160a01b031681526020018b60026007811061310257fe5b602002015181526020018b60036007811061311957fe5b602002015181526020018b60046007811061313057fe5b602002015181526020018b60056007811061314757fe5b602002015181526020018b60066007811061315e57fe5b602002015190529050612491818361426f565b600061333a604051806102a001604052808d60006007811061318f57fe5b60200201516001600160a01b031681526020018d6001600781106131af57fe5b60200201516001600160a01b031681526020018d6002600781106131cf57fe5b60200201516001600160a01b031681526020018c6000600781106131ef57fe5b602002015181526020018c60016007811061320657fe5b602002015181526020018d60036007811061321d57fe5b60200201516001600160a01b031681526020018b600181111561323c57fe5b81526020018a600181111561324d57fe5b815260200189600181111561325e57fe5b815260808e01516001600160a01b0316602082015260400188600181111561328257fe5b8152602081018890526040810187905260a0808f01516001600160a01b0316606083015260808201879052018d600660200201516001600160a01b031681526020018c6002600781106132d157fe5b602002015181526020018c6003600781106132e857fe5b602002015181526020018c6004600781106132ff57fe5b602002015181526020018c60056007811061331657fe5b602002015181526020018c60066007811061332d57fe5b60200201519052836143ee565b9b9a5050505050505050505050565b60006133536156f5565b604080516102a0810182528c516001600160a01b0390811682526020808f01518216818401528e840151909116928201929092528b516060820152908b0151608082015260a081018c600360200201516001600160a01b031681526020018a60018111156133bd57fe5b81526020018960018111156133ce57fe5b81526020018860018111156133df57fe5b815260808d01516001600160a01b0316602082015260400187600181111561340357fe5b8152602081018790526040810186905260a0808e01516001600160a01b0316606083015260808201869052018c600660200201516001600160a01b031681526020018b60026007811061345257fe5b602002015181526020018b60036007811061346957fe5b602002015181526020018b60046007811061348057fe5b602002015181526020018b60056007811061349757fe5b602002015181526020018b6006600781106134ae57fe5b60200201519052905061333a81614425565b6003546001600160a01b031681565b61271081565b6000612fba604051806102a001604052808c6000600781106134f357fe5b60200201516001600160a01b031681526020018c60016007811061351357fe5b60200201516001600160a01b031681526020018c60026007811061353357fe5b60200201516001600160a01b031681526020018b60006007811061355357fe5b602002015181526020018b60016007811061356a57fe5b602002015181526020018c60036007811061358157fe5b60200201516001600160a01b031681526020018a60018111156135a057fe5b81526020018960018111156135b157fe5b81526020018860018111156135c257fe5b815260808d01516001600160a01b031660208201526040018760018111156135e657fe5b8152602081018790526040810186905260a0808e01516001600160a01b0316606083015260808201869052018c600660200201516001600160a01b031681526020018b60026007811061363557fe5b602002015181526020018b60036007811061364c57fe5b602002015181526020018b60046007811061366357fe5b602002015181526020018b60056007811061367a57fe5b602002015181526020018b60066007811061369157fe5b60200201519052614469565b60006136a76156f5565b604080516102a0810182528c516001600160a01b0390811682526020808f01518216818401528e8401518216938301939093528c51606080840191909152928d01516080830152918d015190911660a0820152895160c082019060ff16600181111561370f57fe5b600181111561371a57fe5b81526020018a6001602002015160ff16600181111561373557fe5b600181111561374057fe5b81526020018a6002602002015160ff16600181111561375b57fe5b600181111561376657fe5b815260808d01516001600160a01b031660208201526040018a6003602002015160ff16600181111561379457fe5b600181111561379f57fe5b8152602081018a90526040810188905260a0808e01516001600160a01b0316606083015260808201879052018c600660200201516001600160a01b031681526020018b6002600e81106137ee57fe5b602002015181526020018b6003600e811061380557fe5b602002015181526020018b6004600e811061381c57fe5b602002015181526020018b6005600e811061383357fe5b602002015181526020018b6006600e811061384a57fe5b60200201519052905061385b6156f5565b604080516102a08101825260e08e01516001600160a01b0390811682526101008f0151811660208301526101208f01511691810191909152606081018c6007602002015181526020018c6008600e81106138b157fe5b602002015181526020018d600a600e81106138c857fe5b60200201516001600160a01b031681526020018b6004600881106138e857fe5b602002015160ff1660018111156138fb57fe5b600181111561390657fe5b81526020018b6005602002015160ff16600181111561392157fe5b600181111561392c57fe5b81526020018b6006602002015160ff16600181111561394757fe5b600181111561395257fe5b81526101608e01516001600160a01b031660208201526040018b6007602002015160ff16600181111561398157fe5b600181111561398c57fe5b8152602081018a9052604081018890526101808e01516001600160a01b039081166060830152608082018790526101a08f01511660a08201526101208d81015160c08301526101408e015160e08301526101608e0151610100830152018c600c602002015181526020018c600d600e8110613a0357fe5b602002015190529050613a168282614647565b9c9b505050505050505050505050565b60066020526000908152604090205460ff1681565b613a436140bf565b6001600160a01b0316613a54612fc8565b6001600160a01b031614613aaf576040805162461bcd60e51b815260206004820181905260248201527f4f776e61626c653a2063616c6c6572206973206e6f7420746865206f776e6572604482015290519081900360640190fd5b6001600160a01b038116613af45760405162461bcd60e51b8152600401808060200182810382526026815260200180615d0a6026913960400191505060405180910390fd5b600080546040516001600160a01b038085169361010090930416917f8be0079c531659141344cd1fd0a4f28419497f9722a3daafe3b4186f6b6457e091a3600080546001600160a01b039092166101000274ffffffffffffffffffffffffffffffffffffffff0019909216919091179055565b60005460ff1615613bbf576040805162461bcd60e51b815260206004820152601360248201527f5265656e7472616e637920646574656374656400000000000000000000000000604482015290519081900360640190fd5b6000805460ff19166001179055613bd46157aa565b6000613bdf85614469565b90506000613bec88614469565b60208901519091506001600160a01b0316331415613c1b57613c0d88614425565b613c1657600080fd5b613c28565b613c25888861481d565b83525b60208601516001600160a01b0316331415613c5457613c4686614425565b613c4f57600080fd5b613c64565b613c5e868661481d565b60208401525b613c6e8887614647565b613c935760405162461bcd60e51b8152600401613c8a90615b6d565b60405180910390fd5b610120860151803b9081613ca657600080fd5b610160880151602001516001806001600160e01b031983167f127217d6000000000000000000000000000000000000000000000000000000001480613d1457507ff242432a000000000000000000000000000000000000000000000000000000006001600160e01b03198416145b80613d4857507faba30037000000000000000000000000000000000000000000000000000000006001600160e01b03198416145b80613d63575063e8a568db60e01b6001600160e01b03198416145b15613d8c57613d868d8c63e8a568db60e01b6001600160e01b0319871614614852565b90925090505b6101808d01515115613db257613db28d61016001518c61016001518f6101800151614959565b6101808b01515115613dd857613dd88b61016001518e61016001518d6101800151614959565b613dec8d61016001518c6101600151614b27565b613df557600080fd5b8c602001516001600160a01b0316336001600160a01b031614613e2e5787516000908152600560205260409020805460ff191660011790555b8a602001516001600160a01b0316336001600160a01b031614158015613e515750815b15613e76576020808901516000908152600590915260409020805460ff191660011790555b613ec78b7f9f6ed25f000000000000000000000000000000000000000000000000000000006001600160e01b031986161480613ec2575063e8a568db60e01b6001600160e01b03198616145b614b8b565b506101608b015160440151613ede8e8d8484614ec3565b8960800181815250508d6020015189604001906001600160a01b031690816001600160a01b0316815250508b6020015189606001906001600160a01b031690816001600160a01b031681525050897fe7a1db1f6ecefcc453c6281929883772b09e803260cad416021d547dd2f0d02f888a8c604001518d606001518e60800151878c8a604051613f75989796959493929190615a51565b60405180910390a250506000805460ff19169055505050505050505050505050565b6000613fa283614469565b90506000613fb0848461481d565b905083602001516001600160a01b0316336001600160a01b031614613fd457600080fd5b600081815260056020526040808220805460ff191660011790555183917f5152abf959f6564662358c2e52b702259b78bac5ee7842a0f01937e670efcc7d91a250505050565b60008087600181111561402957fe5b1415614040576140398683615418565b90506126b2565b600187600181111561404e57fe5b14156126b257600061407b61406c876140674289615471565b615418565b6140768688615471565b6154ce565b9050600189600181111561408b57fe5b14156140ac576140a461409e8885615418565b82615471565b9150506126b2565b6140a46140b98885615418565b82615535565b3390565b6000806140f28460e001518561010001518661020001518761022001518861024001518961026001518961401a565b905060006141228660e001518761010001518861020001518961022001518a61024001518b61026001518a61401a565b90508181101561413157600080fd5b60a08501516001600160a01b0316614149578061414b565b815b925050505b9392505050565b600061416282614469565b604051602001614172919061591a565b6040516020818303038152906040528051906020012090505b919050565b600061419b83614425565b6141a757506000614150565b60008481526005602052604090205460ff16156141c657506000614150565b60008481526006602052604090205460ff16156141e557506001614150565b82602001516001600160a01b0316600185846000015185602001518660400151604051600081526020016040526040516142229493929190615a93565b6020604051602081039080840390855afa158015614244573d6000803e3d6000fd5b505050602060405103516001600160a01b0316141561426557506001614150565b5060009392505050565b81602001516001600160a01b0316336001600160a01b03161461429157600080fd5b600061429c83614157565b60008181526006602052604090205490915060ff16156142bb57600080fd5b60016006600083815260200190815260200160002060006101000a81548160ff0219169083151502179055508260a001516001600160a01b031683602001516001600160a01b0316827f9527c050ae65b9188e21083193300cf58effa30739e47513d42d12b56f00b9c186600001518760400151886060015189608001518a60c001518b60e001518c61010001518d6101200151604051614363989796959493929190615989565b60405180910390a4807f57d34cb565121afd87a9e65f8e633848d02ca86728a9fb7b0666a9e52e573b24846101400151856101600151866101a00151876101c00151886101e001518961020001518a61022001518b61024001518c61026001518d61028001518d6040516143e19b9a99989796959493929190615ab1565b60405180910390a2505050565b600061441c8360e001518461010001518561020001518661022001518761024001518861026001518861401a565b90505b92915050565b80516000906001600160a01b031630146144415750600061418b565b61445582610100015183610260015161558f565b6144615750600061418b565b506001919050565b600080614475836155ad565b905060608167ffffffffffffffff8111801561449057600080fd5b506040519080825280601f01601f1916602001820160405280156144bb576020820181803683370190505b50845190915060208201906144d19082906155cd565b90506144e18186602001516155cd565b90506144f18186604001516155cd565b90506145018186606001516155e7565b90506145118186608001516155e7565b9050614521818660a001516155cd565b905061453c818660c00151600181111561453757fe5b6155ef565b9050614552818660e00151600181111561453757fe5b905061456981866101000151600181111561453757fe5b905061457a818661012001516155cd565b905061459181866101400151600181111561453757fe5b90506145a2818661016001516155fc565b90506145b3818661018001516155fc565b90506145c481866101a001516155cd565b90506145d581866101c001516155fc565b90506145e681866101e001516155cd565b90506145f7818661020001516155e7565b9050614608818661022001516155e7565b9050614619818661024001516155e7565b905061462a818661026001516155e7565b905061463b818661028001516155e7565b50506020012092915050565b6000808360e00151600181111561465a57fe5b148015614676575060018260e00151600181111561467457fe5b145b801561469f57508160c00151600181111561468d57fe5b8360c00151600181111561469d57fe5b145b80156146c65750816101e001516001600160a01b0316836101e001516001600160a01b0316145b8015614700575060408201516001600160a01b03161580614700575082602001516001600160a01b031682604001516001600160a01b0316145b801561473a575060408301516001600160a01b0316158061473a575081602001516001600160a01b031683604001516001600160a01b0316145b8015614795575060a08201516001600160a01b0316158015614768575060a08301516001600160a01b031615155b80614795575060a08201516001600160a01b031615801590614795575060a08301516001600160a01b0316155b80156147bc57508161012001516001600160a01b03168361012001516001600160a01b0316145b80156147e7575081610140015160018111156147d457fe5b83610140015160018111156147e557fe5b145b8015614802575061480283610240015184610260015161563f565b801561441c575061441c82610240015183610260015161563f565b60008061482984614157565b9050614836818585614190565b61441c5760405162461bcd60e51b8152600401613c8a90615b36565b60008060008060008061486488614157565b600081815260046020526040812091925088614881576004614884565b60035b6101608b810151908d0151604482015160046020850292830181015192909301909201518554919950975090955090915060ff166148cf57815460ff19166001908117835582018590555b60006148df836001015488615471565b10156148fd5760405162461bcd60e51b8152600401613c8a90615c5e565b61490b826001015487615471565b600183018190556149445750506000908152600460205260408120805460ff191681556001908101919091559450919250614951915050565b5060009650939450505050505b935093915050565b81518351146149af576040805162461bcd60e51b815260206004820152601d60248201527f417272617973206861766520646966666572656e74206c656e67746873000000604482015290519081900360640190fd5b80518351146149ef5760405162461bcd60e51b8152600401808060200182810382526025815260200180615d306025913960400191505060405180910390fd5b600060208451816149fc57fe5b04905060208082029081048214614a0f57fe5b60005b82811015614a3e5760010160208102848101518682015191880180519282169119909216179052614a12565b8215614a6b5782905080600101602002808501518187015181168289015182191617828901525050614b1f565b50805b8551811015614b1f57848181518110614a8357fe5b602001015160f81c60f81b848281518110614a9a57fe5b602001015160f81c60f81b16868281518110614ab257fe5b602001015160f81c60f81b858381518110614ac957fe5b602001015160f81c60f81b60ff60f81b181617868281518110614ae857fe5b60200101907effffffffffffffffffffffffffffffffffffffffffffffffffffffffffffff1916908160001a905350600101614a6e565b505050505050565b815181516000916001918114808314614b435760009250614b81565b600160208701838101602088015b600284838510011415614b7c578051835114614b705760009650600093505b60209283019201614b51565b505050505b5090949350505050565b60608115614c2657600060608461012001516001600160a01b0316856101600151604051614bb991906158fe565b6000604051808303816000865af19150503d8060008114614bf6576040519150601f19603f3d011682016040523d82523d6000602084013e614bfb565b606091505b509150915081614c1d5760405162461bcd60e51b8152600401613c8a90615c01565b915061441f9050565b60015460208401516040517fc45527910000000000000000000000000000000000000000000000000000000081526000926001600160a01b03169163c455279191614c74919060040161594b565b60206040518083038186803b158015614c8c57600080fd5b505afa158015614ca0573d6000803e3d6000fd5b505050506040513d601f19601f82011682018060405250810190614cc491906157d8565b90506001600160a01b038116614cec5760405162461bcd60e51b8152600401613c8a90615bca565b600160009054906101000a90046001600160a01b03166001600160a01b03166397204d8e6040518163ffffffff1660e01b815260040160206040518083038186803b158015614d3a57600080fd5b505afa158015614d4e573d6000803e3d6000fd5b505050506040513d601f19601f82011682018060405250810190614d7291906157d8565b6001600160a01b0316816001600160a01b0316635c60da1b6040518163ffffffff1660e01b815260040160206040518083038186803b158015614db457600080fd5b505afa158015614dc8573d6000803e3d6000fd5b505050506040513d601f19601f82011682018060405250810190614dec91906157d8565b6001600160a01b031614614dff57600080fd5b60006060826001600160a01b0316631b0f7ba98761012001518861014001518961016001516040518463ffffffff1660e01b8152600401614e42939291906159f6565b600060405180830381600087803b158015614e5c57600080fd5b505af1158015614e70573d6000803e3d6000fd5b505050506040513d6000823e601f3d908101601f19168201604052614e989190810190615821565b9150915081614eb95760405162461bcd60e51b8152600401613c8a90615c01565b925061441f915050565b6101e08301516000906001600160a01b031615614ee5573415614ee557600080fd5b6000614ef28686866140c3565b9050600081118015614f1157506101e08501516001600160a01b031615155b15614f2f57614f2f856101e00151876020015187602001518461565b565b60a0850151819081906001600160a01b0316156150f557876080015187608001511115614f5b57600080fd5b60018760c001516001811115614f6d57fe5b14156150b657606087015115615016576000614f98614f90896060015186615418565b6127106154ce565b6101e08901519091506001600160a01b0316614ffb57614fb88382615471565b60a08901516040519194506001600160a01b03169082156108fc029083906000818181858888f19350505050158015614ff5573d6000803e3d6000fd5b50615014565b615014886101e0015189602001518a60a001518461565b565b505b6080870151156150b1576000615033614f90896080015186615418565b6101e08901519091506001600160a01b0316615096576150538282615535565b60a08901516040519193506001600160a01b03169082156108fc029083906000818181858888f19350505050158015615090573d6000803e3d6000fd5b506150af565b6150af886101e001518a602001518a60a001518461565b565b505b6150f0565b6150d3876101e0015188602001518960a001518a606001516156e9565b6150f0876101e0015189602001518960a001518a608001516156e9565b6151ec565b86608001518860800151111561510a57600080fd5b60018760c00151600181111561511c57fe5b14156151b2576101e08701516001600160a01b031661513a57600080fd5b606088015115615174576000615157614f908a6060015186615418565b9050615172886101e001518a602001518b60a001518461565b565b505b6080880151156150f0576000615191614f908a6080015186615418565b90506151ac886101e0015189602001518b60a001518461565b565b506151ec565b6151cf876101e0015189602001518a60a001518b606001516156e9565b6151ec876101e0015188602001518a60a001518b608001516156e9565b6003546101208801516040517f538bd5ea00000000000000000000000000000000000000000000000000000000815260009283926001600160a01b039091169163538bd5ea916152429189908c90600401615a30565b604080518083038186803b15801561525957600080fd5b505afa15801561526d573d6000803e3d6000fd5b505050506040513d601f19601f8201168201806040525081019061529191906157f4565b90925090506001600160a01b038216158015906152ad57508015155b15615357576152bc8482615471565b6101e08a01519094506001600160a01b031661530a576040516001600160a01b0383169082156108fc029083906000818181858888f19350505050158015615308573d6000803e3d6000fd5b505b6101e08901516001600160a01b03161580159061533d5750816001600160a01b031689602001516001600160a01b031614155b1561535757615357896101e001518a60200151848461565b565b50506101e08701516001600160a01b031661540c578034101561537957600080fd5b86602001516001600160a01b03166108fc839081150290604051600060405180830381858888f193505050501580156153b6573d6000803e3d6000fd5b5060006153c33483615471565b9050801561540a5788602001516001600160a01b03166108fc829081150290604051600060405180830381858888f19350505050158015615408573d6000803e3d6000fd5b505b505b50909695505050505050565b6000826154275750600061441f565b8282028284828161543457fe5b041461441c5760405162461bcd60e51b8152600401808060200182810382526021815260200180615d556021913960400191505060405180910390fd5b6000828211156154c8576040805162461bcd60e51b815260206004820152601e60248201527f536166654d6174683a207375627472616374696f6e206f766572666c6f770000604482015290519081900360640190fd5b50900390565b6000808211615524576040805162461bcd60e51b815260206004820152601a60248201527f536166654d6174683a206469766973696f6e206279207a65726f000000000000604482015290519081900360640190fd5b81838161552d57fe5b049392505050565b60008282018381101561441c576040805162461bcd60e51b815260206004820152601b60248201527f536166654d6174683a206164646974696f6e206f766572666c6f770000000000604482015290519081900360640190fd5b60008083600181111561559e57fe5b148061441c5750501515919050565b6101c081015151610180820151516101608301515101016101b001919050565b60601b6bffffffffffffffffffffffff1916815260140190565b815260200190565b6000818353505060010190565b80516000901561563857815180602001830160208401855b6001838310141561562f578151815260209182019101615614565b50505092909201915b5090919050565b6000428310801561441c575081158061441c5750504210919050565b80156156e3576002546040517f15dacbea0000000000000000000000000000000000000000000000000000000081526001600160a01b03909116906315dacbea906156b090879087908790879060040161595f565b600060405180830381600087803b1580156156ca57600080fd5b505af11580156156de573d6000803e3d6000fd5b505050505b50505050565b6156e38484848461565b565b604080516102a081018252600080825260208201819052918101829052606081018290526080810182905260a081018290529060c0820190815260200160008152602001600081526000602082018190526040909101908152602001606081526020016060815260200160006001600160a01b031681526020016060815260200160006001600160a01b0316815260200160008152602001600081526020016000815260200160008152602001600081525090565b6040805160a08101825260008082526020820181905291810182905260608101829052608081019190915290565b6000602082840312156157e9578081fd5b815161441c81615cf4565b60008060408385031215615806578081fd5b825161581181615cf4565b6020939093015192949293505050565b60008060408385031215615833578182fd5b82518015158114615842578283fd5b602084015190925067ffffffffffffffff8082111561585f578283fd5b818501915085601f830112615872578283fd5b81518181111561587e57fe5b604051601f8201601f19168101602001838111828210171561589c57fe5b6040528181528382016020018810156158b3578485fd5b6158c4826020830160208701615cbb565b809450505050509250929050565b600081518084526158ea816020860160208601615cbb565b601f01601f19169290920160200192915050565b60008251615910818460208701615cbb565b9190910192915050565b7f19457468657265756d205369676e6564204d6573736167653a0a3332000000008152601c810191909152603c0190565b6001600160a01b0391909116815260200190565b6001600160a01b039485168152928416602084015292166040820152606081019190915260800190565b6000610100820190506001600160a01b03808b168352808a1660208401528860408401528760608401526159bc87615ce7565b8660808401526159cb86615ce7565b8560a08401526159da85615ce7565b8460c084015280841660e0840152509998505050505050505050565b60006001600160a01b0385168252615a0d84615ce7565b83602083015260606040830152615a2760608301846158d2565b95945050505050565b6001600160a01b039390931683526020830191909152604082015260600190565b97885260208801969096526001600160a01b0394851660408801529284166060870152608086019190915260a08501521660c083015260e08201526101000190565b93845260ff9290921660208401526040830152606082015260800190565b6000610160615abf8e615ce7565b8d8352806020840152615ad48184018e6158d2565b90506001600160a01b03808d1660408501528382036060850152615af8828d6158d2565b9a166080840152505060a081019690965260c086019490945260e0850192909252610100840152610120830152151561014090910152949350505050565b60208082526012908201527f494e56414c49445f4f524445525f484153480000000000000000000000000000604082015260600190565b60208082526024908201527f497a616e614e465445786368616e67653a3a204f72646572206e6f74206d617460408201527f6368656400000000000000000000000000000000000000000000000000000000606082015260800190565b6020808252601c908201527f55736572206e6f742072656769737465642070726f7879207965742100000000604082015260600190565b60208082526029908201527f45786368616e67653a3a4661696c6564207768656e2063616c6c206f7468657260408201527f20636f6e74726163740000000000000000000000000000000000000000000000606082015260800190565b6020808252602a908201527f45786368616e67653a3a455243313135352072656d61696e696e67206973206e60408201527f6f7420656e6f7567682100000000000000000000000000000000000000000000606082015260800190565b60005b83811015615cd6578181015183820152602001615cbe565b838111156156e35750506000910152565b60028110615cf157fe5b50565b6001600160a01b0381168114615cf157600080fdfe4f776e61626c653a206e6577206f776e657220697320746865207a65726f2061646472657373417272617920616e64206d61736b206861766520646966666572656e74206c656e67746873536166654d6174683a206d756c7469706c69636174696f6e206f766572666c6f77a26469706673582212200398e98b32202b045f9e518649284b11a8d0b61b3578b4087b7b66bc22cf090b64736f6c63430007050033",
  "devdoc": {
    "kind": "dev",
    "methods": {
      "approveOrder_(address[7],uint256[7],uint8,uint8,uint8,uint8,bytes,bytes,bytes,bool)": {
        "details": "Call approveOrder - Solidity ABI encoding limitation workaround, hopefully temporary."
      },
      "atomicMatch_(address[14],uint256[14],uint8[8],bytes,bytes,bytes,bytes,bytes,bytes,uint8[2],bytes32[5])": {
        "details": "Call atomicMatch - Solidity ABI encoding limitation workaround, hopefully temporary."
      },
      "calculateCurrentPrice_(address[7],uint256[7],uint8,uint8,uint8,uint8,bytes,bytes,bytes,uint256)": {
        "details": "Call calculateCurrentPrice - Solidity ABI encoding limitation workaround, hopefully temporary."
      },
      "calculateFinalPrice(uint8,uint8,uint256,uint256,uint256,uint256,uint256)": {
        "details": "Call calculateFinalPrice - library function exposed for testing."
      },
      "calculateMatchPrice_(address[14],uint256[14],uint8[8],bytes,bytes,bytes,bytes,bytes,bytes,uint256)": {
        "details": "Call calculateMatchPrice - Solidity ABI encoding limitation workaround, hopefully temporary."
      },
      "cancelOrder_(address[7],uint256[7],uint8,uint8,uint8,uint8,bytes,bytes,bytes,uint8,bytes32,bytes32)": {
        "details": "Call cancelOrder - Solidity ABI encoding limitation workaround, hopefully temporary."
      },
      "constructor": {
        "details": "Initialize a WyvernExchange instance",
        "params": {
          "registryAddress": "Address of the registry instance which this Exchange instance will use"
        }
      },
      "hashOrder_(address[7],uint256[7],uint8,uint8,uint8,uint8,bytes,bytes,bytes)": {
        "details": "Call hashOrder - Solidity ABI encoding limitation workaround, hopefully temporary."
      },
      "hashToSign_(address[7],uint256[7],uint8,uint8,uint8,uint8,bytes,bytes,bytes)": {
        "details": "Call hashToSign - Solidity ABI encoding limitation workaround, hopefully temporary."
      },
      "ordersCanMatch_(address[14],uint256[14],uint8[8],bytes,bytes,bytes,bytes,bytes,bytes)": {
        "details": "Call ordersCanMatch - Solidity ABI encoding limitation workaround, hopefully temporary."
      },
      "owner()": {
        "details": "Returns the address of the current owner."
      },
      "renounceOwnership()": {
        "details": "Leaves the contract without owner. It will not be possible to call `onlyOwner` functions anymore. Can only be called by the current owner. NOTE: Renouncing ownership will leave the contract without an owner, thereby removing any functionality that is only available to the owner."
      },
      "transferOwnership(address)": {
        "details": "Transfers ownership of the contract to a new account (`newOwner`). Can only be called by the current owner."
      },
      "validateOrderParameters_(address[7],uint256[7],uint8,uint8,uint8,uint8,bytes,bytes,bytes)": {
        "details": "Call validateOrderParameters - Solidity ABI encoding limitation workaround, hopefully temporary."
      },
      "validateOrder_(address[7],uint256[7],uint8,uint8,uint8,uint8,bytes,bytes,bytes,uint8,bytes32,bytes32)": {
        "details": "Call validateOrder - Solidity ABI encoding limitation workaround, hopefully temporary."
      }
    },
    "version": 1
  },
  "userdoc": {
    "kind": "user",
    "methods": {},
    "version": 1
  },
  "storageLayout": {
    "storage": [
      {
        "astId": 14296,
        "contract": "contracts/IzanaNFTExchange.sol:IzanaNFTExchange",
        "label": "reentrancyLock",
        "offset": 0,
        "slot": "0",
        "type": "t_bool"
      },
      {
        "astId": 4453,
        "contract": "contracts/IzanaNFTExchange.sol:IzanaNFTExchange",
        "label": "_owner",
        "offset": 1,
        "slot": "0",
        "type": "t_address"
      },
      {
        "astId": 11984,
        "contract": "contracts/IzanaNFTExchange.sol:IzanaNFTExchange",
        "label": "registry",
        "offset": 0,
        "slot": "1",
        "type": "t_contract(ProxyRegistry)15223"
      },
      {
        "astId": 11986,
        "contract": "contracts/IzanaNFTExchange.sol:IzanaNFTExchange",
        "label": "tokenTransferProxy",
        "offset": 0,
        "slot": "2",
        "type": "t_contract(IzanaNFTTransferProxy)14731"
      },
      {
        "astId": 11988,
        "contract": "contracts/IzanaNFTExchange.sol:IzanaNFTExchange",
        "label": "royaltyFeeRegistry",
        "offset": 0,
        "slot": "3",
        "type": "t_contract(IRoyaltyFeeRegistry)16340"
      },
      {
        "astId": 11997,
        "contract": "contracts/IzanaNFTExchange.sol:IzanaNFTExchange",
        "label": "sellOrderAmountRemaining",
        "offset": 0,
        "slot": "4",
        "type": "t_mapping(t_bytes32,t_struct(SellRemaining)11993_storage)"
      },
      {
        "astId": 12001,
        "contract": "contracts/IzanaNFTExchange.sol:IzanaNFTExchange",
        "label": "cancelledOrFinalized",
        "offset": 0,
        "slot": "5",
        "type": "t_mapping(t_bytes32,t_bool)"
      },
      {
        "astId": 12005,
        "contract": "contracts/IzanaNFTExchange.sol:IzanaNFTExchange",
        "label": "approvedOrders",
        "offset": 0,
        "slot": "6",
        "type": "t_mapping(t_bytes32,t_bool)"
      }
    ],
    "types": {
      "t_address": {
        "encoding": "inplace",
        "label": "address",
        "numberOfBytes": "20"
      },
      "t_bool": {
        "encoding": "inplace",
        "label": "bool",
        "numberOfBytes": "1"
      },
      "t_bytes32": {
        "encoding": "inplace",
        "label": "bytes32",
        "numberOfBytes": "32"
      },
      "t_contract(IRoyaltyFeeRegistry)16340": {
        "encoding": "inplace",
        "label": "contract IRoyaltyFeeRegistry",
        "numberOfBytes": "20"
      },
      "t_contract(IzanaNFTTransferProxy)14731": {
        "encoding": "inplace",
        "label": "contract IzanaNFTTransferProxy",
        "numberOfBytes": "20"
      },
      "t_contract(ProxyRegistry)15223": {
        "encoding": "inplace",
        "label": "contract ProxyRegistry",
        "numberOfBytes": "20"
      },
      "t_mapping(t_bytes32,t_bool)": {
        "encoding": "mapping",
        "key": "t_bytes32",
        "label": "mapping(bytes32 => bool)",
        "numberOfBytes": "32",
        "value": "t_bool"
      },
      "t_mapping(t_bytes32,t_struct(SellRemaining)11993_storage)": {
        "encoding": "mapping",
        "key": "t_bytes32",
        "label": "mapping(bytes32 => struct ExchangeMain.SellRemaining)",
        "numberOfBytes": "32",
        "value": "t_struct(SellRemaining)11993_storage"
      },
      "t_struct(SellRemaining)11993_storage": {
        "encoding": "inplace",
        "label": "struct ExchangeMain.SellRemaining",
        "members": [
          {
            "astId": 11990,
            "contract": "contracts/IzanaNFTExchange.sol:IzanaNFTExchange",
            "label": "tracking",
            "offset": 0,
            "slot": "0",
            "type": "t_bool"
          },
          {
            "astId": 11992,
            "contract": "contracts/IzanaNFTExchange.sol:IzanaNFTExchange",
            "label": "left",
            "offset": 0,
            "slot": "1",
            "type": "t_uint256"
          }
        ],
        "numberOfBytes": "64"
      },
      "t_uint256": {
        "encoding": "inplace",
        "label": "uint256",
        "numberOfBytes": "32"
      }
    }
  }
}